:100000000C942A000C943F000C943F000C943F0089
:100010000C943F000C943F000C943F000C943F0064
:100020000C943F000C943F000C943F000C943F0054
:100030000C943F000C943F000C943F000C943F0044
:100040000C943F000C943F000C943F000C943F0034
:100050000C943F0011241FBECFE5D8E0DEBFCDBF1A
:1000600010E0A0E6B0E0E8EEF4E202C005900D92E8
:10007000A23BB107D9F70E94A3100C9472120C9402
:100080000000EF92FF920F931F937B018C0120E001
:1000900030E040E05FE40E94410388238CF0C80117
:1000A000B70120E030E040E05FE40E94B9010E9427
:1000B000A1039B01AC01205030404040504806C095
:1000C000C801B7010E94A1039B01AC01B901CA019B
:1000D0001F910F91FF90EF900895A0E0B0E0E3E74B
:1000E000F0E00C943212DC012B01FA019C91923069
:1000F00008F439C1EB018881823008F433C19430AF
:1001000069F4843009F02FC111969C91119789816F
:10011000981709F428C1A0E9B0E025C1843009F49A
:1001200021C18230A9F4923009F01DC19A01AD01BC
:1001300088E0EA010990AE01E90109929E0181502F
:10014000C1F7E201898111969C918923818308C1BD
:10015000923009F407C112962D903C901397EB0151
:100160008A819B811496AD90BD90CD90DC901797BD
:10017000EC80FD800E811F819101281B390BB90194
:1001800037FF04C066277727621B730B6032710547
:100190000CF061C0121613066CF537014801062EEB
:1001A00004C096948794779467940A94D2F721E0D8
:1001B00030E040E050E004C0220F331F441F551FC1
:1001C0006A95D2F721503040404050402E213F21C7
:1001D00040235123211531054105510521F021E02E
:1001E00030E040E050E079018A01E628F72808294C
:1001F00019293CC0232BD1F1260E371E35014601AB
:10020000062E04C096948794779467940A94D2F744
:1002100021E030E040E050E004C0220F331F441FD3
:10022000551F6A95D2F721503040404050402A2156
:100230003B214C215D21211531054105510521F05E
:1002400021E030E040E050E059016A01A628B728DB
:10025000C828D9280BC0821593052CF01C01AA24AC
:10026000BB24650103C0EE24FF24870111969C91F5
:10027000D20111968C91981709F445C0992339F051
:10028000A80197012A193B094C095D0906C0A6017E
:1002900095012E193F09400B510B57FD08C01182E3
:1002A0003382228224833583468357831DC081E0B5
:1002B00081833382228288279927DC01821B930B5A
:1002C000A40BB50B84839583A683B7830DC0220F3F
:1002D000331F441F551F24833583468357838281F0
:1002E000938101979383828324813581468157814D
:1002F000DA01C9010197A109B1098F5F9F4FAF4F83
:10030000BF4328F30BC0918333822282EA0CFB1C8B
:100310000C1D1D1DE482F5820683178383E0808314
:10032000248135814681578157FF1AC0C901AA2708
:1003300097FDA095BA2F81709070A070B0705695FF
:10034000479537952795822B932BA42BB52B848328
:100350009583A683B7838281938101969383828359
:10036000DF0101C0D201CD01CDB7DEB7E2E10C94CF
:100370004E12A0E2B0E0EFEBF1E00C943E12698384
:100380007A838B839C832D833E834F835887E9E058
:10039000EE2EF12CEC0EFD1ECE010196B7010E944F
:1003A000CA048E010F5E1F4FCE010596B8010E9450
:1003B000CA048A8991E089278A8BC701B801AE01F6
:1003C000475E5F4F0E946D000E94F503A096E6E035
:1003D0000C945A12A0E2B0E0E0EFF1E00C943E126F
:1003E00069837A838B839C832D833E834F835887D5
:1003F000F9E0EF2EF12CEC0EFD1ECE010196B701B7
:100400000E94CA048E010F5E1F4FCE010596B801EF
:100410000E94CA04C701B801AE01475E5F4F0E9447
:100420006D000E94F503A096E6E00C945A12A0E23B
:10043000B0E0EDE1F2E00C94321269837A838B83B1
:100440009C832D833E834F835887CE010196BE0146
:10045000675F7F4F0E94CA04CE010596BE016F5EA2
:100460007F4F0E94CA049985923088F08989823032
:10047000C8F0943019F4823051F404C0843029F467
:10048000923081F480E990E0C6C0923049F420E0D7
:100490009A858A89981321E02A87CE010996BBC0E4
:1004A000823049F420E09A858A89981321E02A8BCA
:1004B000CE014196B0C02D843E844F8458886D880B
:1004C0007E888F88988CEE24FF248701AA24BB2481
:1004D000650140E050E060E070E0E0E0F0E0C10184
:1004E00081709070892BE9F0E60CF71C081D191D2E
:1004F0009A01AB012A0D3B1D4C1D5D1D80E090E073
:10050000A0E0B0E0E614F7040805190520F481E046
:1005100090E0A0E0B0E0BA01A901480F591F6A1F9E
:100520007B1FAA0CBB1CCC1CDD1C97FE08C081E005
:1005300090E0A0E0B0E0A82AB92ACA2ADB2A3196C6
:10054000E032F10549F0660C771C881C991C569422
:10055000479437942794C3CFFA85EA892B893C893D
:100560008B859C85280F391F2E5F3F4F17C0CA010E
:1005700081709070892B61F016950795F794E79438
:1005800080E090E0A0E0B0E8E82AF92A0A2B1B2BD3
:1005900076956795579547952F5F3F4F77FDE7CF46
:1005A0000CC0440F551F661F771F17FD4160EE0CEE
:1005B000FF1C001F111F21503040403090E05907B0
:1005C00090E0690790E4790760F32B8F3C8FDB01A3
:1005D000CA018F779070A070B07080349105A1052A
:1005E000B10561F447FD0AC0E114F10401051105EC
:1005F00029F0405C5F4F6F4F7F4F40781A8EFE1797
:1006000011F081E08A8F4D8F5E8F6F8F78A383E02A
:10061000898FCE0149960E94F503A096E2E10C94E1
:100620004E12A8E1B0E0E7E1F3E00C943E126983DA
:100630007A838B839C832D833E834F83588789E005
:10064000E82EF12CEC0EFD1ECE010196B7010E94A2
:10065000CA048E010F5E1F4FCE010596B8010E949D
:10066000CA048985823040F08989823028F0C70128
:10067000B8010E94420501C08FEF6896E6E00C9435
:100680005A12A8E1B0E0E7E4F3E00C943E1269836B
:100690007A838B839C832D833E834F83588789E0A5
:1006A000E82EF12CEC0EFD1ECE010196B7010E9442
:1006B000CA048E010F5E1F4FCE010596B8010E943D
:1006C000CA048985823040F08989823028F0C701C8
:1006D000B8010E94420501C08FEF6896E6E00C94D5
:1006E0005A12A8E1B0E0E7E7F3E00C943E12698308
:1006F0007A838B839C832D833E834F83588789E045
:10070000E82EF12CEC0EFD1ECE010196B7010E94E1
:10071000CA048E010F5E1F4FCE010596B8010E94DC
:10072000CA048985823040F08989823028F0C70167
:10073000B8010E94420501C081E06896E6E00C9491
:100740005A12ACE0B0E0E7EAF3E00C94421269839D
:100750007A838B839C83CE010196BE016B5F7F4FB2
:100760000E94CA048D81823061F1823050F1843060
:1007700021F48E81882351F12EC02F81388537FDD9
:1007800020C06E812F3131051CF06623F9F023C0A3
:100790008EE190E0821B930B29853A854B855C8521
:1007A00004C056954795379527958A95D2F76623C5
:1007B000B1F050954095309521953F4F4F4F5F4F89
:1007C0000EC020E030E040E050E009C02FEF3FEFE6
:1007D0004FEF5FE704C020E030E040E050E8B901AF
:1007E000CA012C96E2E00C945E12DF92EF92FF9227
:1007F0000F931F93FC01E480F58006811781D1805F
:100800008081823048F480E090E0A0E1B0E0E82A06
:10081000F92A0A2B1B2BA5C0843009F49FC0823013
:1008200021F4EE24FF24870105C0E114F104010541
:10083000110519F4E0E0F0E096C0628173819FEF4A
:10084000623879070CF05BC022E83FEF261B370BBC
:100850002A3131052CF020E030E040E050E02AC0A1
:10086000B801A701022E04C0769567955795479564
:100870000A94D2F781E090E0A0E0B0E004C0880FD5
:10088000991FAA1FBB1F2A95D2F70197A109B10989
:100890008E219F21A023B1230097A105B10521F04E
:1008A00081E090E0A0E0B0E09A01AB01282B392B69
:1008B0004A2B5B2BDA01C9018F779070A070B07062
:1008C00080349105A105B10539F427FF09C0205CEA
:1008D0003F4F4F4F5F4F04C0215C3F4F4F4F5F4F23
:1008E000E0E0F0E02030A0E03A07A0E04A07A0E412
:1008F0005A0710F0E1E0F0E079018A0127C0603882
:10090000710564F5FB01E158FF4FD801C7018F77EE
:100910009070A070B07080349105A105B10539F4D4
:10092000E7FE0DC080E490E0A0E0B0E004C08FE3FB
:1009300090E0A0E0B0E0E80EF91E0A1F1B1F17FFB1
:1009400005C016950795F794E794319687E01695BC
:100950000795F794E7948A95D1F705C0EE24FF2414
:100960008701EFEFF0E06E2F679566276795902F70
:100970009F77D794DD24D7948E2F8695492F462BC9
:10098000582F5D29B701CA011F910F91FF90EF9079
:10099000DF900895FC01DB01408151812281622FAB
:1009A0006F7770E0221F2227221F9381892F880FE3
:1009B000822B282F30E0991F9927991F11969C931D
:1009C000119721153105A9F54115510561057105ED
:1009D00011F482E037C082E89FEF13969C938E93C8
:1009E00012979A01AB0167E0220F331F441F551F76
:1009F0006A95D1F783E08C930DC0220F331F441FFB
:100A0000551F12968D919C911397019713969C9365
:100A10008E931297203080E0380780E0480780E40A
:100A2000580758F314962D933D934D935C93179765
:100A300008952F3F310579F4411551056105710580
:100A400019F484E08C93089564FF03C081E08C93D3
:100A500012C01C9210C02F57304013963C932E9317
:100A6000129783E08C9387E0440F551F661F771F12
:100A70008A95D1F7706414964D935D936D937C9332
:100A8000179708951F93DC01FB019C91923008F4A5
:100A900047C08081823008F443C0943051F41196ED
:100AA0001C91843099F58181682F70E0611B710978
:100AB0003FC0843021F0923031F48230B9F181812D
:100AC000882389F12DC011961C9111978230F1F085
:100AD00081811817D9F412962D913C911397828138
:100AE00093818217930794F028173907BCF0149666
:100AF0008D919D910D90BC91A02D248135814681D1
:100B00005781281739074A075B0718F4112341F06A
:100B10000AC082179307A407B50740F4112319F000
:100B200061E070E005C06FEF7FEF02C060E070E051
:100B3000CB011F910895DF93CF93CDB7DEB72D97EB
:100B40000FB6F894DEBF0FBECDBF89836A834B8397
:100B50008981282F30E03D872C878C859D858234C4
:100B6000910509F450C02C853D852334310534F4BA
:100B70008C859D858134910571F0ECC02C853D8577
:100B80002334310509F477C08C859D858434910523
:100B900009F4A9C0DFC08B81282F30E03B872A876A
:100BA0008A859B85009731F02A853B852130310568
:100BB000B1F0D0C0AAE3B0E0EAE3F0E08081482FD2
:100BC0008A81282F30E081E090E0022E02C0880F59
:100BD000991F0A94E2F7809584238C93BBC0AAE303
:100BE000B0E0EAE3F0E08081482F8A81282F30E0EE
:100BF00081E090E0022E02C0880F991F0A94E2F76C
:100C0000842B8C93A7C08B81282F30E039872887CD
:100C100088859985009731F02885398521303105FF
:100C2000B1F098C0A7E3B0E0E7E3F0E08081482F9F
:100C30008A81282F30E081E090E0022E02C0880FE8
:100C4000991F0A94E2F7809584238C9383C0A7E3CD
:100C5000B0E0E7E3F0E08081482F8A81282F30E080
:100C600081E090E0022E02C0880F991F0A94E2F7FB
:100C7000842B8C936FC08B81282F30E03F832E8391
:100C80008E819F81009731F02E813F812130310587
:100C9000B1F060C0A4E3B0E0E4E3F0E08081482F6D
:100CA0008A81282F30E081E090E0022E02C0880F78
:100CB000991F0A94E2F7809584238C934BC0A4E398
:100CC000B0E0E4E3F0E08081482F8A81282F30E013
:100CD00081E090E0022E02C0880F991F0A94E2F78B
:100CE000842B8C9337C08B81282F30E03D832C835D
:100CF0008C819D81009731F02C813D81213031051F
:100D0000B1F028C0A1E3B0E0E1E3F0E08081482F3A
:100D10008A81282F30E081E090E0022E02C0880F07
:100D2000991F0A94E2F7809584238C9313C0A1E362
:100D3000B0E0E1E3F0E08081482F8A81282F30E0A5
:100D400081E090E0022E02C0880F991F0A94E2F71A
:100D5000842B8C932D960FB6F894DEBF0FBECDBFBB
:100D6000CF91DF910895DF93CF93CDB7DEB72D9765
:100D70000FB6F894DEBF0FBECDBF89836A834B8365
:100D80008981282F30E03D872C878C859D85823492
:100D9000910509F450C02C853D852334310534F488
:100DA0008C859D858134910571F0ECC02C853D8545
:100DB0002334310509F477C08C859D8584349105F1
:100DC00009F4A9C0DFC08B81282F30E03B872A8738
:100DD0008A859B85009731F02A853B852130310536
:100DE000B1F0D0C0ABE3B0E0EBE3F0E08081482F9E
:100DF0008A81282F30E081E090E0022E02C0880F27
:100E0000991F0A94E2F7809584238C93BBC0ABE3CF
:100E1000B0E0EBE3F0E08081482F8A81282F30E0BA
:100E200081E090E0022E02C0880F991F0A94E2F739
:100E3000842B8C93A7C08B81282F30E0398728879B
:100E400088859985009731F02885398521303105CD
:100E5000B1F098C0A8E3B0E0E8E3F0E08081482F6B
:100E60008A81282F30E081E090E0022E02C0880FB6
:100E7000991F0A94E2F7809584238C9383C0A8E39A
:100E8000B0E0E8E3F0E08081482F8A81282F30E04D
:100E900081E090E0022E02C0880F991F0A94E2F7C9
:100EA000842B8C936FC08B81282F30E03F832E835F
:100EB0008E819F81009731F02E813F812130310555
:100EC000B1F060C0A5E3B0E0E5E3F0E08081482F39
:100ED0008A81282F30E081E090E0022E02C0880F46
:100EE000991F0A94E2F7809584238C934BC0A5E365
:100EF000B0E0E5E3F0E08081482F8A81282F30E0E0
:100F000081E090E0022E02C0880F991F0A94E2F758
:100F1000842B8C9337C08B81282F30E03D832C832A
:100F20008C819D81009731F02C813D8121303105EC
:100F3000B1F028C0A2E3B0E0E2E3F0E08081482F06
:100F40008A81282F30E081E090E0022E02C0880FD5
:100F5000991F0A94E2F7809584238C9313C0A2E32F
:100F6000B0E0E2E3F0E08081482F8A81282F30E072
:100F700081E090E0022E02C0880F991F0A94E2F7E8
:100F8000842B8C932D960FB6F894DEBF0FBECDBF89
:100F9000CF91DF910895DF93CF9300D000D0CDB7EC
:100FA000DEB789836A838981282F30E03C832B83D5
:100FB0008B819C8182349105D9F02B813C81233433
:100FC000310534F48B819C818134910561F01EC020
:100FD0002B813C812334310581F08B819C818434C9
:100FE000910581F013C0EAE3F0E08A8180830EC0AE
:100FF000E7E3F0E08A81808309C0E4E3F0E08A81DE
:10100000808304C0E1E3F0E08A8180830F900F9039
:101010000F900F90CF91DF910895DF93CF9300D081
:1010200000D0CDB7DEB789836A838981282F30E06D
:101030003C832B838B819C8182349105D9F02B8159
:101040003C812334310534F48B819C8181349105BA
:1010500061F01EC02B813C812334310581F08B81EE
:101060009C818434910581F013C0EBE3F0E08A8128
:1010700080830EC0E8E3F0E08A81808309C0E5E365
:10108000F0E08A81808304C0E2E3F0E08A8180831B
:101090000F900F900F900F90CF91DF910895DF93F5
:1010A000CF9300D000D00F92CDB7DEB78A836B8389
:1010B0008B81883008F068C08A81282F30E03D831A
:1010C0002C834C815D814234510541F18C819D819D
:1010D0008334910534F42C813D812134310561F054
:1010E00055C04C815D814334510551F18C819D8106
:1010F00084349105B9F14AC0E9E3F0E08081282FFA
:1011000030E08B81882F90E0A90102C0559547956A
:101110008A95E2F7CA018170898338C0E6E3F0E07E
:101120008081282F30E08B81882F90E0A90102C0B8
:10113000559547958A95E2F7CA018170898326C043
:10114000E3E3F0E08081282F30E08B81882F90E06E
:10115000A90102C0559547958A95E2F7CA018170A9
:10116000898314C0E0E3F0E08081282F30E08B8198
:10117000882F90E0A90102C0559547958A95E2F71E
:10118000CA018170898302C08FEF898389810F90A2
:101190000F900F900F900F90CF91DF910895DF93F4
:1011A000CF93CDB7DEB782E46FEF0E94CB07CF912C
:1011B000DF910895DF93CF93CDB7DEB72F970FB6AA
:1011C000F894DEBF0FBECDBF8F878F858A3008F0C1
:1011D0007DC08F85882F90E0FC01E856FF4F9081FD
:1011E00082E4692F0E940D0880E090E0AAE7B4E451
:1011F0008B879C87AD87BE876B857C858D859E851B
:1012000020E030E04AEF54E40E941702DC01CB01F9
:101210008F839887A987BA876F81788589859A8512
:1012200020E030E040E85FE30E94710388232CF463
:1012300081E090E09E838D833FC06F8178858985B2
:101240009A8520E03FEF4FE757E40E9411031816FC
:101250004CF56B857C858D859E8520E030E040E2F5
:1012600051E40E941702DC01CB01BC01CD010E94B8
:101270004100DC01CB019E838D830FC088EC90E0A0
:101280009C838B838B819C810197F1F79C838B835B
:101290008D819E8101979E838D838D819E81009794
:1012A00069F714C06F81788589859A850E9441000D
:1012B000DC01CB019E838D838D819E819A838983FE
:1012C00089819A810197F1F79A8389832F960FB6C6
:1012D000F894DEBF0FBECDBFCF91DF910895DF93AD
:1012E000CF9300D00F92CDB7DEB79B838A8319824C
:1012F0000EC08981282F30E08A819B81FC01E20F9A
:10130000F31F80810E94A80A89818F5F8983898168
:10131000282F30E08A819B81FC01E20FF31F80813E
:10132000882339F70F900F900F90CF91DF91089598
:10133000DF93CF93CDB7DEB76D970FB6F894DEBFCE
:101340000FBECDBF8D8F83E460E040E00E94B30606
:1013500083E461E040E00E94B30684E46D8D0E9466
:101360000D0883E462E041E00E94B30680E090E073
:10137000A0E2B2E4898F9A8FAB8FBC8F698D7A8D92
:101380008B8D9C8D20E030E04AEF54E40E941702E0
:10139000DC01CB018D8B9E8BAF8BB88F6D897E89E5
:1013A0008F89988D20E030E040E85FE30E94710370
:1013B00088232CF481E090E09C8B8B8B3FC06D895F
:1013C0007E898F89988D20E03FEF4FE757E40E9498
:1013D000110318164CF5698D7A8D8B8D9C8D20E04C
:1013E00030E040E251E40E941702DC01CB01BC0175
:1013F000CD010E944100DC01CB019C8B8B8B0FC087
:1014000088EC90E09A8B898B89899A890197F1F70A
:101410009A8B898B8B899C8901979C8B8B8B8B8971
:101420009C89009769F714C06D897E898F89988D92
:101430000E944100DC01CB019C8B8B8B8B899C89AA
:10144000988B8F878F8598890197F1F7988B8F8775
:1014500083E462E040E00E94B30680E090E0A0E216
:10146000B2E48B879C87AD87BE876B857C858D8535
:101470009E8520E030E04AEF54E40E941702DC0130
:10148000CB018F839887A987BA876F8178858985F3
:101490009A8520E030E040E85FE30E9471038823F2
:1014A0002CF481E090E09E838D833FC06F8178852E
:1014B00089859A8520E03FEF4FE757E40E941103AA
:1014C00018164CF56B857C858D859E8520E030E077
:1014D00040E251E40E941702DC01CB01BC01CD01C6
:1014E0000E944100DC01CB019E838D830FC088ECFC
:1014F00090E09C838B838B819C810197F1F79C8387
:101500008B838D819E8101979E838D838D819E81AA
:10151000009769F714C06F81788589859A850E9444
:101520004100DC01CB019E838D838D819E819A8356
:10153000898389819A810197F1F79A8389836D96CE
:101540000FB6F894DEBF0FBECDBFCF91DF910895E7
:10155000DF93CF93CDB7DEB76D970FB6F894DEBFAC
:101560000FBECDBF8D8F83E460E041E00E94B306E3
:1015700083E461E040E00E94B30684E46D8D0E9444
:101580000D0883E462E041E00E94B30680E090E051
:10159000A0E8BFE3898F9A8FAB8FBC8F698D7A8D5E
:1015A0008B8D9C8D20E030E04AEF54E40E941702BE
:1015B000DC01CB018D8B9E8BAF8BB88F6D897E89C3
:1015C0008F89988D20E030E040E85FE30E9471034E
:1015D00088232CF481E090E09C8B8B8B3FC06D893D
:1015E0007E898F89988D20E03FEF4FE757E40E9476
:1015F000110318164CF5698D7A8D8B8D9C8D20E02A
:1016000030E040E251E40E941702DC01CB01BC0152
:10161000CD010E944100DC01CB019C8B8B8B0FC064
:1016200088EC90E09A8B898B89899A890197F1F7E8
:101630009A8B898B8B899C8901979C8B8B8B8B894F
:101640009C89009769F714C06D897E898F89988D70
:101650000E944100DC01CB019C8B8B8B8B899C8988
:10166000988B8F878F8598890197F1F7988B8F8753
:1016700083E462E040E00E94B30680E090E0A0E8EE
:10168000BFE38B879C87AD87BE876B857C858D8507
:101690009E8520E030E04AEF54E40E941702DC010E
:1016A000CB018F839887A987BA876F8178858985D1
:1016B0009A8520E030E040E85FE30E9471038823D0
:1016C0002CF481E090E09E838D833FC06F8178850C
:1016D00089859A8520E03FEF4FE757E40E94110388
:1016E00018164CF56B857C858D859E8520E030E055
:1016F00040E251E40E941702DC01CB01BC01CD01A4
:101700000E944100DC01CB019E838D830FC088ECD9
:1017100090E09C838B838B819C810197F1F79C8364
:101720008B838D819E8101979E838D838D819E8188
:10173000009769F714C06F81788589859A850E9422
:101740004100DC01CB019E838D838D819E819A8334
:10175000898389819A810197F1F79A8389836D96AC
:101760000FB6F894DEBF0FBECDBFCF91DF910895C5
:101770000F931F93DF93CF93CDB7DEB7C654D040FE
:101780000FB6F894DEBF0FBECDBFFE01ED5BFF4F7D
:1017900080E090E0A0E2B2E480839183A283B383EF
:1017A0008E01015C1F4FFE01ED5BFF4F6081718177
:1017B0008281938120E030E04AEF54E40E941702D6
:1017C000DC01CB01F80180839183A283B383FE0106
:1017D000FF96608171818281938120E030E040E852
:1017E0005FE30E94710388232CF481E090E09EAFB8
:1017F0008DAF46C0FE01FF96608171818281938129
:1018000020E03FEF4FE757E40E941103181664F5FC
:10181000FE01ED5BFF4F608171818281938120E049
:1018200030E040E251E40E941702DC01CB01BC0130
:10183000CD010E944100DC01CB019EAF8DAF0FC0F6
:1018400088EC90E09CAF8BAF8BAD9CAD0197F1F72E
:101850009CAF8BAF8DAD9EAD01979EAF8DAF8DAD23
:101860009EAD009769F716C0FE01FF9660817181F9
:10187000828193810E944100DC01CB019EAF8DAF3C
:101880008DAD9EAD9AAF89AF89AD9AAD0197F1F755
:101890009AAF89AF88E30E94980980E090E0A0E8C1
:1018A000BFE38DAB9EABAFABB8AF6DA97EA98FA9DF
:1018B00098AD20E030E04AEF54E40E941702DC01CA
:1018C000CB0189AB9AABABABBCAB69A97AA98BA9AD
:1018D0009CA920E030E040E85FE30E947103882388
:1018E0002CF481E090E098AB8FA73FC069A97AA95A
:1018F0008BA99CA920E03FEF4FE757E40E9411031A
:1019000018164CF56DA97EA98FA998AD20E030E09E
:1019100040E251E40E941702DC01CB01BC01CD0181
:101920000E944100DC01CB0198AB8FA70FC088EC6F
:1019300090E09EA78DA78DA59EA50197F1F79EA784
:101940008DA78FA598A9019798AB8FA78FA598A968
:10195000009769F714C069A97AA98BA99CA90E946C
:101960004100DC01CB0198AB8FA78FA598A99CA75C
:101970008BA78BA59CA50197F1F79CA78BA78FE060
:101980000E94980980E090E0A0E8BFE38FA398A7A9
:10199000A9A7BAA76FA178A589A59AA520E030E0EC
:1019A0004AEF54E40E941702DC01CB018BA39CA3F5
:1019B000ADA3BEA36BA17CA18DA19EA120E030E0D0
:1019C00040E85FE30E94710388232CF481E090E0FB
:1019D0009AA389A33FC06BA17CA18DA19EA120E009
:1019E0003FEF4FE757E40E94110318164CF56FA123
:1019F00078A589A59AA520E030E040E251E40E9454
:101A00001702DC01CB01BC01CD010E944100DC01C9
:101A1000CB019AA389A30FC088EC90E098A38F8F85
:101A20008F8D98A10197F1F798A38F8F89A19AA123
:101A300001979AA389A389A19AA1009769F714C075
:101A40006BA17CA18DA19EA10E944100DC01CB0174
:101A50009AA389A389A19AA19E8F8D8F8D8D9E8D2A
:101A60000197F1F79E8F8D8F81E00E94980980E0A9
:101A700090E0A0E8BFE3898F9A8FAB8FBC8F698D10
:101A80007A8D8B8D9C8D20E030E04AEF54E40E94EB
:101A90001702DC01CB018D8B9E8BAF8BB88F6D89CC
:101AA0007E898F89988D20E030E040E85FE30E94D6
:101AB000710388232CF481E090E09C8B8B8B3FC0DA
:101AC0006D897E898F89988D20E03FEF4FE757E43D
:101AD0000E94110318164CF5698D7A8D8B8D9C8DA3
:101AE00020E030E040E251E40E941702DC01CB012B
:101AF000BC01CD010E944100DC01CB019C8B8B8B92
:101B00000FC088EC90E09A8B898B89899A8901971C
:101B1000F1F79A8B898B8B899C8901979C8B8B8B96
:101B20008B899C89009769F714C06D897E898F899C
:101B3000988D0E944100DC01CB019C8B8B8B8B89A3
:101B40009C89988B8F878F8598890197F1F7988B5F
:101B50008F8781E00E94980980E090E0A0E8BFE3D1
:101B60008B879C87AD87BE876B857C858D859E85A1
:101B700020E030E04AEF54E40E941702DC01CB0180
:101B80008F839887A987BA876F81788589859A8599
:101B900020E030E040E85FE30E94710388232CF4EA
:101BA00081E090E09E838D833FC06F817885898539
:101BB0009A8520E03FEF4FE757E40E941103181683
:101BC0004CF56B857C858D859E8520E030E040E27C
:101BD00051E40E941702DC01CB01BC01CD010E943F
:101BE0004100DC01CB019E838D830FC088EC90E027
:101BF0009C838B838B819C810197F1F79C838B83E2
:101C00008D819E8101979E838D838D819E8100971A
:101C100069F714C06F81788589859A850E94410093
:101C2000DC01CB019E838D838D819E819A83898384
:101C300089819A810197F1F79A838983CA5BDF4F83
:101C40000FB6F894DEBF0FBECDBFCF91DF911F91CD
:101C50000F910895DF93CF93CDB7DEB72E970FB6D0
:101C6000F894DEBF0FBECDBF81E00E94980980E0EE
:101C700090E0A0E0B0E48B879C87AD87BE876B8542
:101C80007C858D859E8520E030E04AEF54E40E94FB
:101C90001702DC01CB018F839887A987BA876F81F0
:101CA000788589859A8520E030E040E85FE30E94EE
:101CB000710388232CF481E090E09E838D833FC0E4
:101CC0006F81788589859A8520E03FEF4FE757E45B
:101CD0000E94110318164CF56B857C858D859E85B9
:101CE00020E030E040E251E40E941702DC01CB0129
:101CF000BC01CD010E944100DC01CB019E838D839C
:101D00000FC088EC90E09C838B838B819C81019732
:101D1000F1F79C838B838D819E8101979E838D83B8
:101D20008D819E81009769F714C06F8178858985C0
:101D30009A850E944100DC01CB019E838D838D81B9
:101D40009E819A83898389819A810197F1F79A8389
:101D500089832E960FB6F894DEBF0FBECDBFCF910C
:101D6000DF910895DF93CF9300D00F92CDB7DEB708
:101D70008A836B838A81823030F48B81803118F4BE
:101D80008B81898303C08B81805C89838981806892
:101D9000898389810E9498090F900F900F90CF91AD
:101DA000DF910895DF93CF9300D0CDB7DEB71A82CD
:101DB00008C081E46A8141E00E949B058A818F5FAF
:101DC0008A838A818430A8F3198213C08981982F6D
:101DD0009C5F81E4692F40E00E949B058981982FD8
:101DE0009C5F81E4692F41E00E94B30689818F5F87
:101DF00089838981843050F30F900F90CF91DF91C8
:101E00000895DF93CF93CDB7DEB7A1970FB6F894BF
:101E1000DEBF0FBECDBF8FEF88A31E8E40C181E411
:101E20006E8D40E00E94B3061F8E2DC18F8D982FBE
:101E30009C5F81E4692F0E944F088D8F8D8D8823D0
:101E400009F01EC180E090E0A8E4B2E4898F9A8F87
:101E5000AB8FBC8F698D7A8D8B8D9C8D20E030E0AF
:101E60004AEF54E40E941702DC01CB018D8B9E8B5C
:101E7000AF8BB88F6D897E898F89988D20E030E097
:101E800040E85FE30E94710388232CF481E090E036
:101E90009C8B8B8B3FC06D897E898F89988D20E0CC
:101EA0003FEF4FE757E40E94110318164CF5698D78
:101EB0007A8D8B8D9C8D20E030E040E251E40E94D1
:101EC0001702DC01CB01BC01CD010E944100DC0105
:101ED000CB019C8B8B8B0FC088EC90E09A8B898B0D
:101EE00089899A890197F1F79A8B898B8B899C89CB
:101EF00001979C8B8B8B8B899C89009769F714C009
:101F00006D897E898F89988D0E944100DC01CB010B
:101F10009C8B8B8B8B899C89988B8F878F859889DD
:101F20000197F1F7988B8F878F8D982F9C5F81E4B5
:101F3000692F0E944F088823B9F38F8D482F50E0F6
:101F40008E8D282F30E0CA01880F991F880F991FA6
:101F5000820F931FFC01EE55FF4F808188A380E024
:101F600090E0AAE7B4E48B879C87AD87BE876B853A
:101F70007C858D859E8520E030E04AEF54E40E9408
:101F80001702DC01CB018F839887A987BA876F81FD
:101F9000788589859A8520E030E040E85FE30E94FB
:101FA000710388232CF481E090E09E838D833FC0F1
:101FB0006F81788589859A8520E03FEF4FE757E468
:101FC0000E94110318164CF56B857C858D859E85C6
:101FD00020E030E040E251E40E941702DC01CB0136
:101FE000BC01CD010E944100DC01CB019E838D83A9
:101FF0000FC088EC90E09C838B838B819C81019740
:10200000F1F79C838B838D819E8101979E838D83C5
:102010008D819E81009769F714C06F8178858985CD
:102020009A850E944100DC01CB019E838D838D81C6
:102030009E819A83898389819A810197F1F79A8396
:1020400089838F8D982F9C5F81E4692F0E944F08B0
:10205000882399F48F8D482F50E08E8D282F30E003
:10206000CA01880F991F880F991F820F931FFC01C7
:10207000EE55FF4F8081805888A388A189A315C0A1
:102080008F8D8F5F8F8F8F8D843008F4CFCE81E45A
:102090006E8D41E00E94B3068E8D8F5F8E8F8E8D88
:1020A000843008F4BCCE88A189A389A1A1960FB67B
:1020B000F894DEBF0FBECDBFCF91DF910895DF93BF
:1020C000CF9300D000D000D0CDB7DEB79E838D83F4
:1020D0001C821B821A82198221C08B819C819C01E7
:1020E000220F331FC901880F991F880F991FA9015B
:1020F000480F591F29813A818D819E81FC01E20F91
:10210000F31F8081882F90E0C097840F951F9C83D8
:102110008B8389819A8101969A83898329813A8167
:102120008D819E81FC01E20FF31F80818823A9F637
:102130008B819C8126960FB6F894DEBF0FBECDBF73
:10214000CF91DF910895DF93CF93CDB7DEB7AA97F4
:102150000FB6F894DEBF0FBECDBF0E94B80B0E9431
:10216000D20E198E1A8E1B8E1C8E8CE0FE017D966F
:10217000DF01282F1D922A95E9F780E2888F1F8AB8
:102180001E8A1D8A1C8A1B8A1A8A198A188A0E942A
:10219000010F8F878F858F3F09F4CAC08F858033E9
:1021A00098F08F858A3380F48F850E94A80ACE012B
:1021B00049960E9469129C01CE014996FC01E20FEA
:1021C000F31F8F858083B4C08F858B3249F08F8554
:1021D0008D3231F08F858A3219F08F858F32E1F49C
:1021E0008F85888FCE0149960E9469129C01CE018D
:1021F0004996FC01E20FF31F1082CE0149960E941E
:102200005F109F8B8E8B81E090E0998B888B198E6D
:10221000888D0E94A80A8CC08F858D3309F07EC0FE
:10222000CE0149960E9469129C01CE014996FC019B
:10223000E20FF31F1082CE0149960E945F109D8B22
:102240008C8B888999898130910509F063C0888DCC
:10225000803209F45FC0888D482F50E05AA749A703
:1022600089A59AA58B329105B1F0A9A5BAA5AC3282
:10227000B10534F429A53AA52A323105F1F040C060
:1022800049A55AA54D32510579F089A59AA58F32F5
:10229000910511F135C08E899F892C893D89820F66
:1022A000931F9B8B8A8B30C08E899F892C893D8997
:1022B000821B930B9B8B8A8B27C08E899F892C89CD
:1022C0003D89DC01A29FC001A39F900DB29F900D9C
:1022D00011249B8B8A8B18C08C899D89009759F09B
:1022E0008E899F892C893D89B9010E940B12CB01EF
:1022F0009B8B8A8B09C080E690E00E946F0904C026
:1023000088E790E00E946F098DE30E94A80A8A89FD
:102310000E94A80A198A188A198E0AC08F858332EA
:1023200039F4198E198A188A80E2888F0E942A0E41
:1023300080E090E0A8ECB2E48B879C87AD87BE87F5
:102340006B857C858D859E8520E030E04AEF54E4E6
:102350000E941702DC01CB018F839887A987BA8777
:102360006F81788589859A8520E030E040E85FE3D9
:102370000E94710388232CF481E090E09E838D837A
:102380003FC06F81788589859A8520E03FEF4FE7D0
:1023900057E40E94110318164CF56B857C858D85DA
:1023A0009E8520E030E040E251E40E941702DC010B
:1023B000CB01BC01CD010E944100DC01CB019E8319
:1023C0008D830FC088EC90E09C838B838B819C81F4
:1023D0000197F1F79C838B838D819E8101979E836A
:1023E0008D838D819E81009769F7D1CE6F8178852D
:1023F00089859A850E944100DC01CB019E838D83F3
:102400008D819E819A83898389819A810197F1F7D1
:102410009A838983BCCE97FB092E07260AD077FDC5
:1024200004D00CD006D000201AF4709561957F4F2F
:102430000895F6F7909581959F4F0895AA1BBB1BB1
:1024400051E107C0AA1FBB1FA617B70710F0A61BB4
:10245000B70B881F991F5A95A9F780959095BC01D5
:10246000CD0108952F923F924F925F926F927F928B
:102470008F929F92AF92BF92CF92DF92EF92FF9294
:102480000F931F93CF93DF93CDB7DEB7CA1BDB0B40
:102490000FB6F894DEBF0FBECDBF09942A883988E5
:1024A00048885F846E847D848C849B84AA84B984EC
:1024B000C884DF80EE80FD800C811B81AA81B981F8
:1024C000CE0FD11D0FB6F894DEBF0FBECDBFED010C
:1024D0000895FC0101900020E9F7809590958E0FFA
:0824E0009F1F0895F894FFCF3F
:1024E8004572726F723A204469766973696F6E201B
:1024F8006279207A65726F004572726F723A20496C
:102508006E76616C6964206F70657261746F7200B9
:1025180000000000000000003F065B4F666D7D076D
:102528007F6F23303D2B3132332D3435362A3738FF
:02253800392F39
:00000001FF
