:100000000C942A000C943F000C943F000C943F0089
:100010000C943F000C943F000C943F000C943F0064
:100020000C943F000C943F000C943F000C943F0054
:100030000C943F000C943F000C943F000C943F0044
:100040000C943F000C943F000C943F000C943F0034
:100050000C943F0011241FBECFE5D8E0DEBFCDBF1A
:1000600011E0A0E6B0E0E4E0FEE202C005900D92EF
:10007000A638B107D9F70E946F120C9400170C94A0
:100080000000EF92FF920F931F937B018C0120E001
:1000900030E040E05FE40E94ED0388238CF0C8016B
:1000A000B70120E030E040E05FE40E94B9010E9427
:1000B0004D049B01AC01205030404040504806C0E8
:1000C000C801B7010E944D049B01AC01B901CA01EE
:1000D0001F910F91FF90EF900895A0E0B0E0E3E74B
:1000E000F0E00C941B14DC012B01FA019C9192307E
:1000F00008F439C1EB018881823008F433C19430AF
:1001000069F4843009F02FC111969C91119789816F
:10011000981709F428C1ADE7B0E025C1843009F48F
:1001200021C18230A9F4923009F01DC19A01AD01BC
:1001300088E0EA010990AE01E90109929E0181502F
:10014000C1F7E201898111969C918923818308C1BD
:10015000923009F407C112962D903C901397EB0151
:100160008A819B811496AD90BD90CD90DC901797BD
:10017000EC80FD800E811F819101281B390BB90194
:1001800037FF04C066277727621B730B6032710547
:100190000CF061C0121613066CF537014801062EEB
:1001A00004C096948794779467940A94D2F721E0D8
:1001B00030E040E050E004C0220F331F441F551FC1
:1001C0006A95D2F721503040404050402E213F21C7
:1001D00040235123211531054105510521F021E02E
:1001E00030E040E050E079018A01E628F72808294C
:1001F00019293CC0232BD1F1260E371E35014601AB
:10020000062E04C096948794779467940A94D2F744
:1002100021E030E040E050E004C0220F331F441FD3
:10022000551F6A95D2F721503040404050402A2156
:100230003B214C215D21211531054105510521F05E
:1002400021E030E040E050E059016A01A628B728DB
:10025000C828D9280BC0821593052CF01C01AA24AC
:10026000BB24650103C0EE24FF24870111969C91F5
:10027000D20111968C91981709F445C0992339F051
:10028000A80197012A193B094C095D0906C0A6017E
:1002900095012E193F09400B510B57FD08C01182E3
:1002A0003382228224833583468357831DC081E0B5
:1002B00081833382228288279927DC01821B930B5A
:1002C000A40BB50B84839583A683B7830DC0220F3F
:1002D000331F441F551F24833583468357838281F0
:1002E000938101979383828324813581468157814D
:1002F000DA01C9010197A109B1098F5F9F4FAF4F83
:10030000BF4328F30BC0918333822282EA0CFB1C8B
:100310000C1D1D1DE482F5820683178383E0808314
:10032000248135814681578157FF1AC0C901AA2708
:1003300097FDA095BA2F81709070A070B0705695FF
:10034000479537952795822B932BA42BB52B848328
:100350009583A683B7838281938101969383828359
:10036000DF0101C0D201CD01CDB7DEB7E2E10C94CF
:100370003714A0E2B0E0EFEBF1E00C9427146983AE
:100380007A838B839C832D833E834F835887E9E058
:10039000EE2EF12CEC0EFD1ECE010196B7010E944F
:1003A0003E068E010F5E1F4FCE010596B8010E94DA
:1003B0003E068A8991E089278A8BC701B801AE0180
:1003C000475E5F4F0E946D000E946905A096E6E0BF
:1003D0000C944314A0E2B0E0E0EFF1E00C94271499
:1003E00069837A838B839C832D833E834F835887D5
:1003F000F9E0EF2EF12CEC0EFD1ECE010196B701B7
:100400000E943E068E010F5E1F4FCE010596B80179
:100410000E943E06C701B801AE01475E5F4F0E94D1
:100420006D000E946905A096E6E00C944314A0E2DA
:10043000B0E0EDE1F2E00C941B1469837A838B83C6
:100440009C832D833E834F835887CE010196BE0146
:10045000675F7F4F0E943E06CE010596BE016F5E2C
:100460007F4F0E943E069985923088F089898230BC
:10047000C8F0943019F4823051F404C0843029F467
:10048000923081F48DE790E0C6C0923049F420E0CC
:100490009A858A89981321E02A87CE010996BBC0E4
:1004A000823049F420E09A858A89981321E02A8BCA
:1004B000CE014196B0C02D843E844F8458886D880B
:1004C0007E888F88988CEE24FF248701AA24BB2481
:1004D000650140E050E060E070E0E0E0F0E0C10184
:1004E00081709070892BE9F0E60CF71C081D191D2E
:1004F0009A01AB012A0D3B1D4C1D5D1D80E090E073
:10050000A0E0B0E0E614F7040805190520F481E046
:1005100090E0A0E0B0E0BA01A901480F591F6A1F9E
:100520007B1FAA0CBB1CCC1CDD1C97FE08C081E005
:1005300090E0A0E0B0E0A82AB92ACA2ADB2A3196C6
:10054000E032F10549F0660C771C881C991C569422
:10055000479437942794C3CFFA85EA892B893C893D
:100560008B859C85280F391F2E5F3F4F17C0CA010E
:1005700081709070892B61F016950795F794E79438
:1005800080E090E0A0E0B0E8E82AF92A0A2B1B2BD3
:1005900076956795579547952F5F3F4F77FDE7CF46
:1005A0000CC0440F551F661F771F17FD4160EE0CEE
:1005B000FF1C001F111F21503040403090E05907B0
:1005C00090E0690790E4790760F32B8F3C8FDB01A3
:1005D000CA018F779070A070B07080349105A1052A
:1005E000B10561F447FD0AC0E114F10401051105EC
:1005F00029F0405C5F4F6F4F7F4F40781A8EFE1797
:1006000011F081E08A8F4D8F5E8F6F8F78A383E02A
:10061000898FCE0149960E946905A096E2E10C946B
:100620003714A8E1B0E0E7E1F3E00C942314698308
:100630007A838B839C832D833E834F835887B9E0D5
:10064000EB2EF12CEC0EFD1ECE010196B7010E949F
:100650003E068E010F5E1F4FCE010596B8010E9427
:100660003E062985223008F47EC03989323010F4E4
:10067000B8017CC08A859A8989278A87243011F03D
:10068000223031F4231709F06EC06DE770E06EC0C0
:10069000343039F41D861E861F86188A1C861B86F8
:1006A00004C0323021F484E08987B7015FC02B8514
:1006B0003C858B899C89281B390B3C872B87ED84D3
:1006C000FE840F851889AD88BE88CF88D88CEA143F
:1006D000FB040C051D0540F4EE0CFF1C001F111F50
:1006E000215030403C872B8720E030E040E050E054
:1006F00080E090E0A0E0B0E460E070E0EA14FB0489
:100700000C051D0540F0282B392B4A2B5B2BEA18D2
:10071000FB080C091D09B695A79597958795EE0CD2
:10072000FF1C001F111F6F5F7F4F6F31710531F785
:10073000DA01C9018F779070A070B0708034910594
:10074000A105B10561F427FD0AC0E114F10401051A
:10075000110529F0205C3F4F4F4F5F4F20782D87C8
:100760003E874F87588BBE01675F7F4FCB010E944A
:1007700069056896EAE00C943F14A8E1B0E0E3EC68
:10078000F3E00C94271469837A838B839C832D83F5
:100790003E834F83588789E0E82EF12CEC0EFD1E36
:1007A000CE010196B7010E943E068E010F5E1F4FDB
:1007B000CE010596B8010E943E068985823040F040
:1007C0008989823028F0C701B8010E94B60601C0AD
:1007D0008FEF6896E6E00C944314A8E1B0E0E3EFF5
:1007E000F3E00C94271469837A838B839C832D8395
:1007F0003E834F83588789E0E82EF12CEC0EFD1ED6
:10080000CE010196B7010E943E068E010F5E1F4F7A
:10081000CE010596B8010E943E068985823040F0DF
:100820008989823028F0C701B8010E94B60601C04C
:100830008FEF6896E6E00C944314A8E1B0E0E3E2A1
:10084000F4E00C94271469837A838B839C832D8333
:100850003E834F83588789E0E82EF12CEC0EFD1E75
:10086000CE010196B7010E943E068E010F5E1F4F1A
:10087000CE010596B8010E943E068985823040F07F
:100880008989823028F0C701B8010E94B60601C0EC
:1008900081E06896E6E00C944314ACE0B0E0E3E558
:1008A000F4E00C942B1469837A838B839C83CE01B0
:1008B0000196BE016B5F7F4F0E943E068D818230A4
:1008C00061F1823050F1843021F48E81882351F11E
:1008D0002EC02F81388537FD20C06E812F31310524
:1008E0001CF06623F9F023C08EE190E0821B930B8D
:1008F00029853A854B855C8504C056954795379583
:1009000027958A95D2F76623B1F05095409530959A
:1009100021953F4F4F4F5F4F0EC020E030E040E049
:1009200050E009C02FEF3FEF4FEF5FE704C020E03A
:1009300030E040E050E8B901CA012C96E2E00C94A6
:100940004714A8E0B0E0E7EAF4E00C9423147B013C
:100950008C01611571058105910519F482E0898387
:1009600060C083E089838EE1C82ED12CDC82CB82EB
:10097000ED82FE820F831887C801B7010E941A0515
:10098000FC013197F7FF3BC0222733272E1B3F0B7B
:1009900057016801022E04C0D694C794B794A79457
:1009A0000A94D2F740E050E060E070E081E090E02F
:1009B000A0E0B0E004C0880F991FAA1FBB1F2A95B2
:1009C000D2F70197A109B1098E219F21A023B1235C
:1009D0000097A105B10521F041E050E060E070E032
:1009E0004A295B296C297D294D835E836F83788733
:1009F0008EE190E08E1B9F0B9C838B8312C03097FF
:100A000081F00E2E04C0EE0CFF1C001F111F0A9473
:100A1000D2F7ED82FE820F831887CE1ADF0ADC82BE
:100A2000CB821A82CE0101960E9469052896EAE0DF
:100A30000C943F14EF92FF920F931F937B018C0154
:100A400080E0E81680E0F80681E0080780E01807FB
:100A500088F48FEFE816F1040105110531F028F054
:100A600088E090E0A0E0B0E017C080E090E0A0E077
:100A7000B0E012C080E0E81680E0F80680E00807E9
:100A800081E0180728F088E190E0A0E0B0E004C021
:100A900080E190E0A0E0B0E020E230E040E050E013
:100AA000281B390B4A0B5B0B04C016950795F7946E
:100AB000E7948A95D2F7F701EB57FF4F8081281B07
:100AC000310941095109C9011F910F91FF90EF9020
:100AD0000895DF92EF92FF920F931F93FC01E48041
:100AE000F58006811781D1808081823048F480E0D2
:100AF00090E0A0E1B0E0E82AF92A0A2B1B2BA5C060
:100B0000843009F49FC0823021F4EE24FF24870151
:100B100005C0E114F1040105110519F4E0E0F0E06D
:100B200096C0628173819FEF623879070CF05BC0D9
:100B300022E83FEF261B370B2A3131052CF020E04D
:100B400030E040E050E02AC0B801A701022E04C006
:100B500076956795579547950A94D2F781E090E08E
:100B6000A0E0B0E004C0880F991FAA1FBB1F2A9500
:100B7000D2F70197A109B1098E219F21A023B123AA
:100B80000097A105B10521F081E090E0A0E0B0E080
:100B90009A01AB01282B392B4A2B5B2BDA01C901B7
:100BA0008F779070A070B07080349105A105B10569
:100BB00039F427FF09C0205C3F4F4F4F5F4F04C0FF
:100BC000215C3F4F4F4F5F4FE0E0F0E02030A0E06E
:100BD0003A07A0E04A07A0E45A0710F0E1E0F0E08D
:100BE00079018A0127C06038710564F5FB01E1587D
:100BF000FF4FD801C7018F779070A070B07080341C
:100C00009105A105B10539F4E7FE0DC080E490E03F
:100C1000A0E0B0E004C08FE390E0A0E0B0E0E80E18
:100C2000F91E0A1F1B1F17FF05C016950795F7949D
:100C3000E794319687E016950795F794E7948A959F
:100C4000D1F705C0EE24FF248701EFEFF0E06E2F0F
:100C5000679566276795902F9F77D794DD24D79463
:100C60008E2F8695492F462B582F5D29B701CA0133
:100C70001F910F91FF90EF90DF900895FC01DB0131
:100C8000408151812281622F6F7770E0221F2227DD
:100C9000221F9381892F880F822B282F30E0991FE4
:100CA0009927991F11969C93119721153105A9F544
:100CB000411551056105710511F482E037C082E8E4
:100CC0009FEF13969C938E9312979A01AB0167E066
:100CD000220F331F441F551F6A95D1F783E08C9371
:100CE0000DC0220F331F441F551F12968D919C91EA
:100CF0001397019713969C938E931297203080E060
:100D0000380780E0480780E4580758F314962D937D
:100D10003D934D935C93179708952F3F310579F4D8
:100D2000411551056105710519F484E08C9308950E
:100D300064FF03C081E08C9312C01C9210C02F5737
:100D4000304013963C932E93129783E08C9387E068
:100D5000440F551F661F771F8A95D1F7706414964C
:100D60004D935D936D937C93179708951F93DC01CA
:100D7000FB019C91923008F447C08081823008F4D6
:100D800043C0943051F411961C91843099F58181BF
:100D9000682F70E0611B71093FC0843021F09230F0
:100DA00031F48230B9F18181882389F12DC0119607
:100DB0001C9111978230F1F081811817D9F41296A5
:100DC0002D913C911397828193818217930794F020
:100DD00028173907BCF014968D919D910D90BC9108
:100DE000A02D2481358146815781281739074A076C
:100DF0005B0718F4112341F00AC082179307A40778
:100E0000B50740F4112319F061E070E005C06FEF01
:100E10007FEF02C060E070E0CB011F910895DF9387
:100E2000CF93CDB7DEB7AFE5B0E0EFE5F0E080817E
:100E300080688C93CF91DF910895DF93CF93CDB7E6
:100E4000DEB7AFE5B0E0EFE5F0E080818F778C931F
:100E5000CF91DF910895DF93CF93CDB7DEB72A9777
:100E60000FB6F894DEBF0FBECDBF89836A83898138
:100E7000282F30E03A87298789859A858130910526
:100E800009F466C029853A852230310509F4BBC0D2
:100E900089859A85009709F0D5C08A81282F30E08E
:100EA00038872F838F8198858130910521F12F819B
:100EB0003885223031052CF48F819885009761F0B8
:100EC000C1C02F8138852230310521F18F8198856D
:100ED0008330910571F1B6C0A5E5B0E0E5E5F0E03D
:100EE00080818E7F8C93A5E5B0E0E5E5F0E0808120
:100EF0008D7F8C93A7C0A5E5B0E0E5E5F0E08081AB
:100F000081608C93A5E5B0E0E5E5F0E080818D7F20
:100F10008C9398C0A5E5B0E0E5E5F0E080818E7F98
:100F20008C93A5E5B0E0E5E5F0E0808182608C93EC
:100F300089C0A5E5B0E0E5E5F0E0808181608C93B3
:100F4000A5E5B0E0E5E5F0E0808182608C937AC0B1
:100F50008A81282F30E03E832D838D819E818130D0
:100F6000910521F12D813E81223031052CF48D81B6
:100F70009E81009761F066C02D813E81223031054F
:100F800021F18D819E818330910571F15BC0A5E5D2
:100F9000B0E0E5E5F0E080818B7F8C93A5E5B0E0E3
:100FA000E5E5F0E08081877F8C934CC0A5E5B0E05B
:100FB000E5E5F0E0808184608C93A5E5B0E0E5E5AF
:100FC000F0E08081877F8C933DC0A5E5B0E0E5E54A
:100FD000F0E080818B7F8C93A5E5B0E0E5E5F0E063
:100FE000808188608C932EC0A5E5B0E0E5E5F0E057
:100FF000808184608C93A5E5B0E0E5E5F0E0808138
:1010000088608C931FC08A81282F30E03C832B831B
:101010008B819C818230910531F02B813C81233082
:10102000310549F00FC0A4E5B0E0E4E5F0E08081CF
:101030008F7B8C9307C0A4E5B0E0E4E5F0E080810D
:1010400080648C932A960FB6F894DEBF0FBECDBF96
:10105000CF91DF910895DF93CF9300D00F92CDB75A
:10106000DEB789838981282F30E03B832A838A81F8
:101070009B818130910589F02A813B8122303105A5
:10108000A1F08A819B810097B9F4ABE5B0E0EBE574
:10109000F0E0808180648C930FC0ABE5B0E0EBE5BD
:1010A000F0E0808180688C9307C0ABE5B0E0EBE5B1
:1010B000F0E0808180628C930F900F900F90CF9121
:1010C000DF910895DF93CF9300D00F92CDB7DEB7B5
:1010D00089838981282F30E03B832A838A819B8101
:1010E0008130910589F02A813B8122303105A1F0C0
:1010F0008A819B810097B9F4ABE5B0E0EBE5F0E0C5
:1011000080818F7B8C930FC0ABE5B0E0EBE5F0E026
:1011100080818F778C9307C0ABE5B0E0EBE5F0E022
:1011200080818F7D8C930F900F900F90CF91DF91E6
:101130000895DF93CF93CDB7DEB72D970FB6F89410
:10114000DEBF0FBECDBF89836A834B838981282F81
:1011500030E03D872C878C859D858234910509F48C
:1011600050C02C853D852334310534F48C859D8514
:101170008134910571F0ECC02C853D852334310517
:1011800009F477C08C859D858434910509F4A9C044
:10119000DFC08B81282F30E03B872A878A859B859B
:1011A000009731F02A853B8521303105B1F0D0C060
:1011B000AAE3B0E0EAE3F0E08081482F8A81282F9B
:1011C00030E081E090E0022E02C0880F991F0A945F
:1011D000E2F7809584238C93BBC0AAE3B0E0EAE3F6
:1011E000F0E08081482F8A81282F30E081E090E074
:1011F000022E02C0880F991F0A94E2F7842B8C9369
:10120000A7C08B81282F30E039872887888599856A
:10121000009731F02885398521303105B1F098C02B
:10122000A7E3B0E0E7E3F0E08081482F8A81282F30
:1012300030E081E090E0022E02C0880F991F0A94EE
:10124000E2F7809584238C9383C0A7E3B0E0E7E3C3
:10125000F0E08081482F8A81282F30E081E090E003
:10126000022E02C0880F991F0A94E2F7842B8C93F8
:101270006FC08B81282F30E03F832E838E819F812A
:10128000009731F02E813F8121303105B1F060C0EF
:10129000A4E3B0E0E4E3F0E08081482F8A81282FC6
:1012A00030E081E090E0022E02C0880F991F0A947E
:1012B000E2F7809584238C934BC0A4E3B0E0E4E391
:1012C000F0E08081482F8A81282F30E081E090E093
:1012D000022E02C0880F991F0A94E2F7842B8C9388
:1012E00037C08B81282F30E03D832C838C819D81FA
:1012F000009731F02C813D8121303105B1F028C0BB
:10130000A1E3B0E0E1E3F0E08081482F8A81282F5B
:1013100030E081E090E0022E02C0880F991F0A940D
:10132000E2F7809584238C9313C0A1E3B0E0E1E35E
:10133000F0E08081482F8A81282F30E081E090E022
:10134000022E02C0880F991F0A94E2F7842B8C9317
:101350002D960FB6F894DEBF0FBECDBFCF91DF91B3
:101360000895DF93CF93CDB7DEB72D970FB6F894DE
:10137000DEBF0FBECDBF89836A834B838981282F4F
:1013800030E03D872C878C859D858234910509F45A
:1013900050C02C853D852334310534F48C859D85E2
:1013A0008134910571F0ECC02C853D8523343105E5
:1013B00009F477C08C859D858434910509F4A9C012
:1013C000DFC08B81282F30E03B872A878A859B8569
:1013D000009731F02A853B8521303105B1F0D0C02E
:1013E000ABE3B0E0EBE3F0E08081482F8A81282F67
:1013F00030E081E090E0022E02C0880F991F0A942D
:10140000E2F7809584238C93BBC0ABE3B0E0EBE3C1
:10141000F0E08081482F8A81282F30E081E090E041
:10142000022E02C0880F991F0A94E2F7842B8C9336
:10143000A7C08B81282F30E0398728878885998538
:10144000009731F02885398521303105B1F098C0F9
:10145000A8E3B0E0E8E3F0E08081482F8A81282FFC
:1014600030E081E090E0022E02C0880F991F0A94BC
:10147000E2F7809584238C9383C0A8E3B0E0E8E38F
:10148000F0E08081482F8A81282F30E081E090E0D1
:10149000022E02C0880F991F0A94E2F7842B8C93C6
:1014A0006FC08B81282F30E03F832E838E819F81F8
:1014B000009731F02E813F8121303105B1F060C0BD
:1014C000A5E3B0E0E5E3F0E08081482F8A81282F92
:1014D00030E081E090E0022E02C0880F991F0A944C
:1014E000E2F7809584238C934BC0A5E3B0E0E5E35D
:1014F000F0E08081482F8A81282F30E081E090E061
:10150000022E02C0880F991F0A94E2F7842B8C9355
:1015100037C08B81282F30E03D832C838C819D81C7
:10152000009731F02C813D8121303105B1F028C088
:10153000A2E3B0E0E2E3F0E08081482F8A81282F27
:1015400030E081E090E0022E02C0880F991F0A94DB
:10155000E2F7809584238C9313C0A2E3B0E0E2E32A
:10156000F0E08081482F8A81282F30E081E090E0F0
:10157000022E02C0880F991F0A94E2F7842B8C93E5
:101580002D960FB6F894DEBF0FBECDBFCF91DF9181
:101590000895DF93CF9300D000D0CDB7DEB7898315
:1015A0006A838981282F30E03C832B838B819C8147
:1015B00082349105D9F02B813C812334310534F4F8
:1015C0008B819C818134910561F01EC02B813C810F
:1015D0002334310581F08B819C818434910581F025
:1015E00013C0EAE3F0E08A8180830EC0E7E3F0E015
:1015F0008A81808309C0E4E3F0E08A81808304C0AB
:10160000E1E3F0E08A8180830F900F900F900F90BC
:10161000CF91DF910895DF93CF9300D000D0CDB765
:10162000DEB789836A838981282F30E03C832B834E
:101630008B819C8182349105D9F02B813C812334AC
:10164000310534F48B819C818134910561F01EC099
:101650002B813C812334310581F08B819C81843442
:10166000910581F013C0EBE3F0E08A8180830EC026
:10167000E8E3F0E08A81808309C0E5E3F0E08A8155
:10168000808304C0E2E3F0E08A8180830F900F90B2
:101690000F900F90CF91DF910895DF93CF9300D0FB
:1016A00000D00F92CDB7DEB78A836B838B818830F1
:1016B00008F068C08A81282F30E03D832C834C815C
:1016C0005D814234510541F18C819D8183349105C6
:1016D00034F42C813D812134310561F055C04C81B9
:1016E0005D814334510551F18C819D818434910594
:1016F000B9F14AC0E9E3F0E08081282F30E08B8126
:10170000882F90E0A90102C0559547958A95E2F788
:10171000CA018170898338C0E6E3F0E08081282F18
:1017200030E08B81882F90E0A90102C05595479544
:101730008A95E2F7CA018170898326C0E3E3F0E06D
:101740008081282F30E08B81882F90E0A90102C092
:10175000559547958A95E2F7CA018170898314C02F
:10176000E0E3F0E08081282F30E08B81882F90E04B
:10177000A90102C0559547958A95E2F7CA01817083
:10178000898302C08FEF898389810F900F900F901A
:101790000F900F90CF91DF910895DF93CF9300D0FA
:1017A0000F92CDB7DEB789838981282F30E03B8344
:1017B0002A838A819B8181309105C1F02A813B81F6
:1017C0002230310511F18A819B81009761F5A7E2F2
:1017D000B0E0E7E2F0E080818F7B8C93A7E2B0E09D
:1017E000E7E2F0E080818F778C931DC0A7E2B0E044
:1017F000E7E2F0E0808180648C93A7E2B0E0E7E26A
:10180000F0E080818F778C930EC0A7E2B0E0E7E232
:10181000F0E0808180648C93A7E2B0E0E7E2F0E042
:10182000808180688C93A7E2B0E0E7E2F0E08081FD
:1018300080628C93A6E2B0E0E6E2F0E08081816015
:101840008C93A6E2B0E0E6E2F0E0808182608C93C7
:10185000A6E2B0E0E6E2F0E0808184608C93A6E24C
:10186000B0E0E6E2F0E0808180688C930F900F900A
:101870000F90CF91DF910895DF93CF930F92CDB763
:10188000DEB78983A7E2B0E0E7E2F0E08081807E06
:101890008C93A7E2B0E0E7E2F0E090818981892BA8
:1018A0008C93A6E2B0E0E6E2F0E0808180648C9365
:1018B000E6E2F0E0808182958F70882F90E0817061
:1018C00090700097A9F3A6E2B0E0E6E2F0E0808134
:1018D00080618C93E5E2F0E080810F90CF91DF9101
:1018E0000895DF93CF93CDB7DEB783E461E041E0A5
:1018F0000E94B109CF91DF910895DF93CF93CDB7C7
:10190000DEB783E460E041E00E94B109CF91DF914E
:101910000895DF93CF93CDB7DEB783E460E040E076
:101920000E94B10983E461E040E00E94B109CF91D7
:10193000DF910895DF93CF93CDB7DEB783E46FEFE8
:101940000E94C90ACF91DF910895DF93CF9300D011
:101950000F92CDB7DEB79B838A8319820EC089812F
:10196000282F30E08A819B81FC01E20FF31F8081E8
:101970000E94DE0D89818F5F89838981282F30E065
:101980008A819B81FC01E20FF31F8081882339F754
:101990000F900F900F90CF91DF910895DF93CF9329
:1019A000CDB7DEB76D970FB6F894DEBF0FBECDBFD3
:1019B0008D8F83E460E040E00E94B10983E461E040
:1019C00040E00E94B10984E46D8D0E940B0B83E41A
:1019D00062E041E00E94B10980E090E0A0E2B2E460
:1019E000898F9A8FAB8FBC8F698D7A8D8B8D9C8DF3
:1019F00020E030E04AEF54E40E941702DC01CB0102
:101A00008D8B9E8BAF8BB88F6D897E898F89988DDA
:101A100020E030E040E85FE30E941D0488232CF4BE
:101A200081E090E09C8B8B8B3FC06D897E898F8994
:101A3000988D20E03FEF4FE757E40E94BD03181652
:101A40004CF5698D7A8D8B8D9C8D20E030E040E2E5
:101A500051E40E941702DC01CB01BC01CD010E94C0
:101A60004100DC01CB019C8B8B8B0FC088EC90E09C
:101A70009A8B898B89899A890197F1F79A8B898B3F
:101A80008B899C8901979C8B8B8B8B899C89009778
:101A900069F714C06D897E898F89988D0E944100F5
:101AA000DC01CB019C8B8B8B8B899C89988B8F87DE
:101AB0008F8598890197F1F7988B8F8783E462E08F
:101AC00040E00E94B10980E090E0A0E2B2E48B87A0
:101AD0009C87AD87BE876B857C858D859E8520E044
:101AE00030E04AEF54E40E941702DC01CB018F83FF
:101AF0009887A987BA876F81788589859A8520E03C
:101B000030E040E85FE30E941D0488232CF481E06C
:101B100090E09E838D833FC06F81788589859A850B
:101B200020E03FEF4FE757E40E94BD0318164CF545
:101B30006B857C858D859E8520E030E040E251E418
:101B40000E941702DC01CB01BC01CD010E944100C3
:101B5000DC01CB019E838D830FC088EC90E09C83D9
:101B60008B838B819C810197F1F79C838B838D8183
:101B70009E8101979E838D838D819E81009769F759
:101B800014C06F81788589859A850E944100DC01A7
:101B9000CB019E838D838D819E819A8389838981E8
:101BA0009A810197F1F79A8389836D960FB6F8941D
:101BB000DEBF0FBECDBFCF91DF910895DF93CF93EE
:101BC000CDB7DEB76D970FB6F894DEBF0FBECDBFB1
:101BD0008D8F83E460E041E00E94B10983E461E01D
:101BE00040E00E94B10984E46D8D0E940B0B83E4F8
:101BF00062E041E00E94B10980E090E0A0E8BFE32C
:101C0000898F9A8FAB8FBC8F698D7A8D8B8D9C8DD0
:101C100020E030E04AEF54E40E941702DC01CB01DF
:101C20008D8B9E8BAF8BB88F6D897E898F89988DB8
:101C300020E030E040E85FE30E941D0488232CF49C
:101C400081E090E09C8B8B8B3FC06D897E898F8972
:101C5000988D20E03FEF4FE757E40E94BD03181630
:101C60004CF5698D7A8D8B8D9C8D20E030E040E2C3
:101C700051E40E941702DC01CB01BC01CD010E949E
:101C80004100DC01CB019C8B8B8B0FC088EC90E07A
:101C90009A8B898B89899A890197F1F79A8B898B1D
:101CA0008B899C8901979C8B8B8B8B899C89009756
:101CB00069F714C06D897E898F89988D0E944100D3
:101CC000DC01CB019C8B8B8B8B899C89988B8F87BC
:101CD0008F8598890197F1F7988B8F8783E462E06D
:101CE00040E00E94B10980E090E0A0E8BFE38B876C
:101CF0009C87AD87BE876B857C858D859E8520E022
:101D000030E04AEF54E40E941702DC01CB018F83DC
:101D10009887A987BA876F81788589859A8520E019
:101D200030E040E85FE30E941D0488232CF481E04A
:101D300090E09E838D833FC06F81788589859A85E9
:101D400020E03FEF4FE757E40E94BD0318164CF523
:101D50006B857C858D859E8520E030E040E251E4F6
:101D60000E941702DC01CB01BC01CD010E944100A1
:101D7000DC01CB019E838D830FC088EC90E09C83B7
:101D80008B838B819C810197F1F79C838B838D8161
:101D90009E8101979E838D838D819E81009769F737
:101DA00014C06F81788589859A850E944100DC0185
:101DB000CB019E838D838D819E819A8389838981C6
:101DC0009A810197F1F79A8389836D960FB6F894FB
:101DD000DEBF0FBECDBFCF91DF9108950F931F934C
:101DE000DF93CF93CDB7DEB7C654D0400FB6F8948B
:101DF000DEBF0FBECDBFFE01ED5BFF4F80E090E088
:101E0000A0E2B2E480839183A283B3838E01015C5C
:101E10001F4FFE01ED5BFF4F6081718182819381D5
:101E200020E030E04AEF54E40E941702DC01CB01CD
:101E3000F80180839183A283B383FE01FF966081C2
:101E400071818281938120E030E040E85FE30E946D
:101E50001D0488232CF481E090E09EAF8DAF46C036
:101E6000FE01FF96608171818281938120E03FEFC6
:101E70004FE757E40E94BD03181664F5FE01ED5BC1
:101E8000FF4F608171818281938120E030E040E2E8
:101E900051E40E941702DC01CB01BC01CD010E947C
:101EA0004100DC01CB019EAF8DAF0FC088EC90E00C
:101EB0009CAF8BAF8BAD9CAD0197F1F79CAF8BAF17
:101EC0008DAD9EAD01979EAF8DAF8DAD9EAD009750
:101ED00069F716C0FE01FF9660817181828193814E
:101EE0000E944100DC01CB019EAF8DAF8DAD9EAD58
:101EF0009AAF89AF89AD9AAD0197F1F79AAF89AFE3
:101F000088E30E94CE0C80E090E0A0E8BFE38DABB8
:101F10009EABAFABB8AF6DA97EA98FA998AD20E0FD
:101F200030E04AEF54E40E941702DC01CB0189AB98
:101F30009AABABABBCAB69A97AA98BA99CA920E0F1
:101F400030E040E85FE30E941D0488232CF481E028
:101F500090E098AB8FA73FC069A97AA98BA99CA9EB
:101F600020E03FEF4FE757E40E94BD0318164CF501
:101F70006DA97EA98FA998AD20E030E040E251E440
:101F80000E941702DC01CB01BC01CD010E9441007F
:101F9000DC01CB0198AB8FA70FC088EC90E09EA727
:101FA0008DA78DA59EA50197F1F79EA78DA78FA55B
:101FB00098A9019798AB8FA78FA598A9009769F763
:101FC00014C069A97AA98BA99CA90E944100DC01CF
:101FD000CB0198AB8FA78FA598A99CA78BA78BA5A2
:101FE0009CA50197F1F79CA78BA78FE00E94CE0CD0
:101FF00080E090E0A0E8BFE38FA398A7A9A7BAA7C5
:102000006FA178A589A59AA520E030E04AEF54E4B5
:102010000E941702DC01CB018BA39CA3ADA3BEA33E
:102020006BA17CA18DA19EA120E030E040E85FE3A0
:102030000E941D0488232CF481E090E09AA389A3D8
:102040003FC06BA17CA18DA19EA120E03FEF4FE797
:1020500057E40E94BD0318164CF56FA178A589A519
:102060009AA520E030E040E251E40E941702DC0132
:10207000CB01BC01CD010E944100DC01CB019AA340
:1020800089A30FC088EC90E098A38F8F8F8D98A1C3
:102090000197F1F798A38F8F89A19AA101979AA32D
:1020A00089A389A19AA1009769F714C06BA17CA1AB
:1020B0008DA19EA10E944100DC01CB019AA389A3BE
:1020C00089A19AA19E8F8D8F8D8D9E8D0197F1F79D
:1020D0009E8F8D8F81E00E94CE0C80E090E0A0E882
:1020E000BFE3898F9A8FAB8FBC8F698D7A8D8B8D73
:1020F0009C8D20E030E04AEF54E40E941702DC019E
:10210000CB018D8B9E8BAF8BB88F6D897E898F892C
:10211000988D20E030E040E85FE30E941D048823B2
:102120002CF481E090E09C8B8B8B3FC06D897E8985
:102130008F89988D20E03FEF4FE757E40E94BD0361
:1021400018164CF5698D7A8D8B8D9C8D20E030E0D2
:1021500040E251E40E941702DC01CB01BC01CD0139
:102160000E944100DC01CB019C8B8B8B0FC088EC63
:1021700090E09A8B898B89899A890197F1F79A8BDC
:10218000898B8B899C8901979C8B8B8B8B899C89F4
:10219000009769F714C06D897E898F89988D0E9498
:1021A0004100DC01CB019C8B8B8B8B899C89988BAC
:1021B0008F878F8598890197F1F7988B8F8781E0BA
:1021C0000E94CE0C80E090E0A0E8BFE38B879C8764
:1021D000AD87BE876B857C858D859E8520E030E050
:1021E0004AEF54E40E941702DC01CB018F839887E9
:1021F000A987BA876F81788589859A8520E030E044
:1022000040E85FE30E941D0488232CF481E090E005
:102210009E838D833FC06F81788589859A8520E074
:102220003FEF4FE757E40E94BD0318164CF56B854E
:102230007C858D859E8520E030E040E251E40E945F
:102240001702DC01CB01BC01CD010E944100DC0181
:10225000CB019E838D830FC088EC90E09C838B83A1
:102260008B819C810197F1F79C838B838D819E816B
:1022700001979E838D838D819E81009769F714C09D
:102280006F81788589859A850E944100DC01CB01A8
:102290009E838D838D819E819A83898389819A8192
:1022A0000197F1F79A838983CA5BDF4F0FB6F894E1
:1022B000DEBF0FBECDBFCF91DF911F910F9108956B
:1022C000DF93CF93CDB7DEB72E970FB6F894DEBF6E
:1022D0000FBECDBF81E00E94CE0C80E090E0A0E078
:1022E000B0E48B879C87AD87BE876B857C858D85A9
:1022F0009E8520E030E04AEF54E40E941702DC01A2
:10230000CB018F839887A987BA876F817885898564
:102310009A8520E030E040E85FE30E941D048823B6
:102320002CF481E090E09E838D833FC06F8178859F
:1023300089859A8520E03FEF4FE757E40E94BD036F
:1023400018164CF56B857C858D859E8520E030E0E8
:1023500040E251E40E941702DC01CB01BC01CD0137
:102360000E944100DC01CB019E838D830FC088EC6D
:1023700090E09C838B838B819C810197F1F79C83F8
:102380008B838D819E8101979E838D838D819E811C
:10239000009769F714C06F81788589859A850E94B6
:1023A0004100DC01CB019E838D838D819E819A83C8
:1023B000898389819A810197F1F79A8389832E967F
:1023C0000FB6F894DEBF0FBECDBFCF91DF91089559
:1023D000DF93CF9300D00F92CDB7DEB78A836B83A4
:1023E0008A81823030F48B81803118F48B8189832B
:1023F00003C08B81805C898389818068898389811E
:102400000E94CE0C0F900F900F90CF91DF91089506
:10241000DF93CF93CDB7DEB781E00E94CD0BCF9194
:10242000DF910895DF93CF93CDB7DEB72A970FB62C
:10243000F894DEBF0FBECDBF80E00E943C0C882F19
:1024400090E09A87898789859A85CC01A0E0B0E0E1
:10245000BC01CD010E94A104DC01CB01BC01CD0176
:1024600020E030E040E854E40E941103DC01CB019D
:10247000BC01CD0120E030E040EA50E40E941702A8
:10248000DC01CB018D839E83AF83B8876D817E8114
:102490008F81988520E030E040E05FE30E94B90141
:1024A000DC01CB01BC01CD0120E030E048EC52E47E
:1024B0000E941702DC01CB0189839A83AB83BC8322
:1024C00089819A81AB81BC81BC01CD012A960FB66E
:1024D000F894DEBF0FBECDBFCF91DF910895DF939B
:1024E000CF93CDB7DEB7E8970FB6F894DEBF0FBE37
:1024F000CDBF0E94081283E46FEF0E94C90A84E4F2
:102500006FEF0E94C90A0E94EE0E0E941212DC01B7
:10251000CB018BA79CA7ADA7BEA78DB79EB7089789
:102520000FB6F8949EBF0FBE8DBFEDB7FEB73196C4
:10253000CE018F96918380838AE090E0938382839B
:1025400080E690E09583848381E290E097838683A0
:102550000E9452148DB79EB708960FB6F8949EBF8E
:102560000FBE8DBF0E94601180E060E00E94E81104
:102570008DE690E00E94A50C80E090E0AAE7B4E42C
:102580008FA398A7A9A7BAA76FA178A589A59AA58F
:1025900020E030E04AEF54E40E941702DC01CB0156
:1025A0008BA39CA3ADA3BEA36BA17CA18DA19EA177
:1025B00020E030E040E85FE30E941D0488232CF413
:1025C00081E090E09AA389A33FC06BA17CA18DA17B
:1025D0009EA120E03FEF4FE757E40E94BD0318168D
:1025E0004CF56FA178A589A59AA520E030E040E2DE
:1025F00051E40E941702DC01CB01BC01CD010E9415
:102600004100DC01CB019AA389A30FC088EC90E0C4
:1026100098A38F8F8F8D98A10197F1F798A38F8F33
:1026200089A19AA101979AA389A389A19AA1009748
:1026300069F714C06BA17CA18DA19EA10E944100ED
:10264000DC01CB019AA389A389A19AA19E8F8D8FCA
:102650008D8D9E8D0197F1F79E8F8D8F82E060E0CA
:102660000E94E81180E090E0AAE7B4E4898F9A8F95
:10267000AB8FBC8F698D7A8D8B8D9C8D20E030E087
:102680004AEF54E40E941702DC01CB018D8B9E8B34
:10269000AF8BB88F6D897E898F89988D20E030E06F
:1026A00040E85FE30E941D0488232CF481E090E061
:1026B0009C8B8B8B3FC06D897E898F89988D20E0A4
:1026C0003FEF4FE757E40E94BD0318164CF5698DA4
:1026D0007A8D8B8D9C8D20E030E040E251E40E94A9
:1026E0001702DC01CB01BC01CD010E944100DC01DD
:1026F000CB019C8B8B8B0FC088EC90E09A8B898BE5
:1027000089899A890197F1F79A8B898B8B899C89A2
:1027100001979C8B8B8B8B899C89009769F714C0E0
:102720006D897E898F89988D0E944100DC01CB01E3
:102730009C8B8B8B8B899C89988B8F878F859889B5
:102740000197F1F7988B8F878AE790E00E94A50C9C
:1027500080E090E0AAE7B4E48B879C87AD87BE87D2
:102760006B857C858D859E8520E030E04AEF54E4C2
:102770000E941702DC01CB018F839887A987BA8753
:102780006F81788589859A8520E030E040E85FE3B5
:102790000E941D0488232CF481E090E09E838D83A9
:1027A0003FC06F81788589859A8520E03FEF4FE7AC
:1027B00057E40E94BD0318164CF56B857C858D850A
:1027C0009E8520E030E040E251E40E941702DC01E7
:1027D000CB01BC01CD010E944100DC01CB019E83F5
:1027E0008D830FC088EC90E09C838B838B819C81D0
:1027F0000197F1F79C838B838D819E8101979E8346
:102800008D838D819E81009769F77FCE6F8178855A
:1028100089859A850E944100DC01CB019E838D83CE
:102820008D819E819A83898389819A810197F1F7AD
:102830009A8389836ACE2F923F924F925F926F92D2
:102840007F928F929F92AF92BF92CF92DF92EF9240
:10285000FF920F931F93CF93DF93CDB7DEB7CA1BC1
:10286000DB0B0FB6F894DEBF0FBECDBF09942A88EC
:10287000398848885F846E847D848C849B84AA8494
:10288000B984C884DF80EE80FD800C811B81AA8121
:10289000B981CE0FD11D0FB6F894DEBF0FBECDBFEC
:1028A000ED010895AEE0B0E0E8E5F4E10C94291400
:1028B0000D891E898F89988D97FF02C080E090E86E
:1028C00001979E838D831A83098386E08C839E0102
:1028D000255E3F4FCE010196698D7A8DA9010E9438
:1028E00083144D815E8157FD0AC02F8138854217C0
:1028F00053070CF49A01020F131FF80110822E9651
:10290000E4E00C944514ABE0B0E0E9E8F4E10C94A9
:102910001B143C012B015A01FC0117821682838192
:1029200081FD03C06FEF7FEFC6C19AE0892E1E01C3
:102930000894211C311CF3012381F20123FD8591B0
:1029400023FF81912F01882309F4B2C1853239F424
:1029500023FD859123FF81912F01853229F490E099
:10296000B3010E947616E7CF982FFF24EE24992416
:10297000FFE1FF15D0F09B3269F09C3228F49032D1
:1029800059F0933291F40EC09D3249F0903369F4BE
:1029900041E024C052E0F52A84E0F82A28C098E0FB
:1029A000F92A25C0E0E1FE2A22C0F7FC29C0892FC0
:1029B00080538A3070F4F6FE05C0989C902C112448
:1029C000980E15C0E89CE02C1124E80EF0E2FF2AD6
:1029D0000EC09E3229F4F6FC6BC140E4F42A07C015
:1029E0009C3619F450E8F52A02C0983649F4F201F1
:1029F00023FD959123FF91912F01992309F0B8CFE1
:102A0000892F8554833018F08052833038F444E0A5
:102A100050E0A40EB51E5FE359830FC0933631F02A
:102A2000933779F0933509F056C020C0F5018081C5
:102A3000898342E050E0A40EB51E610101E010E080
:102A400012C0F501C080D180F6FC03C06FEF7FEFAC
:102A500002C0692D70E042E050E0A40EB51EC60130
:102A60000E946B168C015FE7F52214C0F501C0804F
:102A7000D180F6FC03C06FEF7FEF02C0692D70E0DC
:102A800042E050E0A40EB51EC6010E9460168C0103
:102A900050E8F52AF3FE07C01AC080E290E0B301C7
:102AA0000E947616EA948E2D90E008171907A8F375
:102AB0000EC0F601F7FC8591F7FE81916F0190E061
:102AC000B3010E947616E110EA94015010400115FE
:102AD000110579F7EAC0943611F0993669F5F7FED9
:102AE00008C0F501208131814281538184E090E06A
:102AF0000AC0F501808191819C01442737FD4095F2
:102B0000542F82E090E0A80EB91E9FE6F92257FFED
:102B100009C050954095309521953F4F4F4F5F4FDD
:102B2000E0E8FE2ACA01B901A1012AE030E00E94D2
:102B3000A216D82ED21840C0953729F41F2D1F7E1B
:102B40002AE030E01DC01F2D197F9F3661F09037BD
:102B500020F4983509F0ACC00FC0903739F09837A1
:102B600009F0A6C004C028E030E00AC0106114FDDE
:102B7000146020E130E004C014FD166020E132E072
:102B800017FF08C0F501608171818281938144E063
:102B900050E008C0F50180819181BC0180E090E0A7
:102BA00042E050E0A40EB51EA1010E94A216D82E4C
:102BB000D2188FE7F82EF122F6FE0BC05EEFF52259
:102BC000D91438F4F4FE07C0F2FC05C08FEEF822E9
:102BD00002C01D2D01C0192DF4FE0DC0FE01ED0D2A
:102BE000F11D8081803319F499EEF92208C01F5F2E
:102BF000F2FE05C003C08F2D867809F01F5F0F2DF0
:102C0000F3FC14C0F0FE0FC01E1510F09D2C0BC07D
:102C10009D2C9E0C911A1E2D06C080E290E0B301FF
:102C20000E9476161F5F1E15C0F304C01E1510F417
:102C3000E11A01C0EE2404FF0FC080E390E0B3016D
:102C40000E94761602FF1DC001FD03C088E790E0D8
:102C50000EC088E590E00BC0802F867891F001FFD0
:102C600002C08BE201C080E2F7FC8DE290E0B3018C
:102C70000E94761606C080E390E0B3010E947616AB
:102C80009A94D914C0F3DA94F101ED0DF11D80810D
:102C900090E0B3010E947616DD20A9F706C080E21D
:102CA00090E0B3010E947616EA94EE20C1F743CE7D
:102CB000F30166817781CB012B96E2E10C94371406
:102CC000FC010590615070400110D8F780959095F7
:102CD0008E0F9F1F0895FC016150704001900110FC
:102CE000D8F7809590958E0F9F1F08950F931F938F
:102CF000CF93DF938C01EB018B8181FF1BC082FF9F
:102D00000DC02E813F818C819D812817390764F485
:102D1000E881F9810193F983E88306C0E885F985A4
:102D2000802F0995892B31F48E819F8101969F8395
:102D30008E8302C00FEF1FEFC801DF91CF911F916B
:102D40000F910895FA01AA27283051F1203181F11D
:102D5000E8946F936E7F6E5F7F4F8F4F9F4FAF4FA3
:102D6000B1E03ED0B4E03CD0670F781F891F9A1FB6
:102D7000A11D680F791F8A1F911DA11D6A0F711D6A
:102D8000811D911DA11D20D009F468943F912AE076
:102D9000269F11243019305D3193DEF6CF0108955E
:102DA000462F4770405D4193B3E00FD0C9F7F6CF8F
:102DB000462F4F70405D4A3318F0495D31FD405257
:102DC000419302D0A9F7EACFB4E0A69597958795ED
:102DD00077956795BA95C9F70097610571050895CC
:102DE0009B01AC010A2E0694579547953795279578
:102DF000BA95C9F7620F731F841F951FA01D089510
:042E0000F894FFCF74
:102E040054656D703A20252E326620430054656D5A
:102E140070657261747572653A00333300000000A6
:102E24000000000000000102020303030304040481
:102E34000404040404050505050505050505050543
:102E44000505050505060606060606060606060623
:102E5400060606060606060606060606060606060E
:102E640006060606060707070707070707070707F3
:102E740007070707070707070707070707070707DE
:102E840007070707070707070707070707070707CE
:102E940007070707070707070707070707070707BE
:102EA40007070707070808080808080808080808A3
:102EB400080808080808080808080808080808088E
:102EC400080808080808080808080808080808087E
:102ED400080808080808080808080808080808086E
:102EE400080808080808080808080808080808085E
:102EF400080808080808080808080808080808084E
:102F0400080808080808080808080808080808083D
:102F1400080808080808080808080808080808082D
:062F24000808080808007F
:00000001FF
