:100000000C942A000C9447000C9447000C94470071
:100010000C9447000C9447000C9447000C94470044
:100020000C9447000C9447000C9447000C94470034
:100030000C9447000C9447000C9447000C94470024
:100040000C9447000C9447000C9447000C94470014
:100050000C94470011241FBECFE5D8E0DEBFCDBF12
:1000600010E0A0E6B0E0E0ECF0E302C005900D92F5
:10007000AE36B107D9F710E0AEE6B0E001C01D9290
:10008000A238B107E1F70E94A1170C945E180C94F6
:100090000000EF92FF920F931F937B018C0120E0F1
:1000A00030E040E05FE40E94F50388238CF0C80153
:1000B000B70120E030E040E05FE40E94C1010E940F
:1000C00055049B01AC01205030404040504806C0D0
:1000D000C801B7010E9455049B01AC01B901CA01D6
:1000E0001F910F91FF90EF900895A0E0B0E0EBE733
:1000F000F0E00C94D017DC012B01FA019C919230B6
:1001000008F439C1EB018881823008F433C194309E
:1001100069F4843009F02FC111969C91119789815F
:10012000981709F428C1A5E6B0E025C1843009F488
:1001300021C18230A9F4923009F01DC19A01AD01AC
:1001400088E0EA010990AE01E90109929E0181501F
:10015000C1F7E201898111969C918923818308C1AD
:10016000923009F407C112962D903C901397EB0141
:100170008A819B811496AD90BD90CD90DC901797AD
:10018000EC80FD800E811F819101281B390BB90184
:1001900037FF04C066277727621B730B6032710537
:1001A0000CF061C0121613066CF537014801062EDB
:1001B00004C096948794779467940A94D2F721E0C8
:1001C00030E040E050E004C0220F331F441F551FB1
:1001D0006A95D2F721503040404050402E213F21B7
:1001E00040235123211531054105510521F021E01E
:1001F00030E040E050E079018A01E628F72808293C
:1002000019293CC0232BD1F1260E371E350146019A
:10021000062E04C096948794779467940A94D2F734
:1002200021E030E040E050E004C0220F331F441FC3
:10023000551F6A95D2F721503040404050402A2146
:100240003B214C215D21211531054105510521F04E
:1002500021E030E040E050E059016A01A628B728CB
:10026000C828D9280BC0821593052CF01C01AA249C
:10027000BB24650103C0EE24FF24870111969C91E5
:10028000D20111968C91981709F445C0992339F041
:10029000A80197012A193B094C095D0906C0A6016E
:1002A00095012E193F09400B510B57FD08C01182D3
:1002B0003382228224833583468357831DC081E0A5
:1002C00081833382228288279927DC01821B930B4A
:1002D000A40BB50B84839583A683B7830DC0220F2F
:1002E000331F441F551F24833583468357838281E0
:1002F000938101979383828324813581468157813D
:10030000DA01C9010197A109B1098F5F9F4FAF4F72
:10031000BF4328F30BC0918333822282EA0CFB1C7B
:100320000C1D1D1DE482F5820683178383E0808304
:10033000248135814681578157FF1AC0C901AA27F8
:1003400097FDA095BA2F81709070A070B0705695EF
:10035000479537952795822B932BA42BB52B848318
:100360009583A683B7838281938101969383828349
:10037000DF0101C0D201CD01CDB7DEB7E2E10C94BF
:10038000EC17A0E2B0E0E7ECF1E00C94DC17698335
:100390007A838B839C832D833E834F835887E9E048
:1003A000EE2EF12CEC0EFD1ECE010196B7010E943F
:1003B0007E058E010F5E1F4FCE010596B8010E948B
:1003C0007E058A8991E089278A8BC701B801AE0131
:1003D000475E5F4F0E9475000E94A904A096E6E068
:1003E0000C94F817A0E2B0E0E8EFF1E00C94DC1711
:1003F00069837A838B839C832D833E834F835887C5
:10040000F9E0EF2EF12CEC0EFD1ECE010196B701A6
:100410000E947E058E010F5E1F4FCE010596B8012A
:100420000E947E05C701B801AE01475E5F4F0E9482
:1004300075000E94A904A096E6E00C94F817A0E2CB
:10044000B0E0E5E2F2E00C94D01769837A838B8305
:100450009C832D833E834F835887CE010196BE0136
:10046000675F7F4F0E947E05CE010596BE016F5EDD
:100470007F4F0E947E059985923088F0898982306D
:10048000C8F0943019F4823051F404C0843029F457
:10049000923081F485E690E0C6C0923049F420E0C5
:1004A0009A858A89981321E02A87CE010996BBC0D4
:1004B000823049F420E09A858A89981321E02A8BBA
:1004C000CE014196B0C02D843E844F8458886D88FB
:1004D0007E888F88988CEE24FF248701AA24BB2471
:1004E000650140E050E060E070E0E0E0F0E0C10174
:1004F00081709070892BE9F0E60CF71C081D191D1E
:100500009A01AB012A0D3B1D4C1D5D1D80E090E062
:10051000A0E0B0E0E614F7040805190520F481E036
:1005200090E0A0E0B0E0BA01A901480F591F6A1F8E
:100530007B1FAA0CBB1CCC1CDD1C97FE08C081E0F5
:1005400090E0A0E0B0E0A82AB92ACA2ADB2A3196B6
:10055000E032F10549F0660C771C881C991C569412
:10056000479437942794C3CFFA85EA892B893C892D
:100570008B859C85280F391F2E5F3F4F17C0CA01FE
:1005800081709070892B61F016950795F794E79428
:1005900080E090E0A0E0B0E8E82AF92A0A2B1B2BC3
:1005A00076956795579547952F5F3F4F77FDE7CF36
:1005B0000CC0440F551F661F771F17FD4160EE0CDE
:1005C000FF1C001F111F21503040403090E05907A0
:1005D00090E0690790E4790760F32B8F3C8FDB0193
:1005E000CA018F779070A070B07080349105A1051A
:1005F000B10561F447FD0AC0E114F10401051105DC
:1006000029F0405C5F4F6F4F7F4F40781A8EFE1786
:1006100011F081E08A8F4D8F5E8F6F8F78A383E01A
:10062000898FCE0149960E94A904A096E2E10C941C
:10063000EC17A8E1B0E0EFE1F3E00C94D817698380
:100640007A838B839C832D833E834F835887B9E0C5
:10065000EB2EF12CEC0EFD1ECE010196B7010E948F
:100660007E058E010F5E1F4FCE010596B8010E94D8
:100670007E052985223008F47EC03989323010F495
:10068000B8017CC08A859A8989278A87243011F02D
:10069000223031F4231709F06EC065E670E06EC0B9
:1006A000343039F41D861E861F86188A1C861B86E8
:1006B00004C0323021F484E08987B7015FC02B8504
:1006C0003C858B899C89281B390B3C872B87ED84C3
:1006D000FE840F851889AD88BE88CF88D88CEA142F
:1006E000FB040C051D0540F4EE0CFF1C001F111F40
:1006F000215030403C872B8720E030E040E050E044
:1007000080E090E0A0E0B0E460E070E0EA14FB0478
:100710000C051D0540F0282B392B4A2B5B2BEA18C2
:10072000FB080C091D09B695A79597958795EE0CC2
:10073000FF1C001F111F6F5F7F4F6F31710531F775
:10074000DA01C9018F779070A070B0708034910584
:10075000A105B10561F427FD0AC0E114F10401050A
:10076000110529F0205C3F4F4F4F5F4F20782D87B8
:100770003E874F87588BBE01675F7F4FCB010E943A
:10078000A9046896EAE00C94F417A8E1B0E0EBEC59
:10079000F3E00C94DC1769837A838B839C832D832D
:1007A0003E834F83588789E0E82EF12CEC0EFD1E26
:1007B000CE010196B7010E947E058E010F5E1F4F8C
:1007C000CE010596B8010E947E058985823040F0F1
:1007D0008989823028F0C701B8010E94F60501C05E
:1007E0008FEF6896E6E00C94F817A8E1B0E0EBEF25
:1007F000F3E00C94DC1769837A838B839C832D83CD
:100800003E834F83588789E0E82EF12CEC0EFD1EC5
:10081000CE010196B7010E947E058E010F5E1F4F2B
:10082000CE010596B8010E947E058985823040F090
:100830008989823028F0C701B8010E94F60501C0FD
:100840008FEF6896E6E00C94F817A8E1B0E0EBE2D1
:10085000F4E00C94DC1769837A838B839C832D836B
:100860003E834F83588789E0E82EF12CEC0EFD1E65
:10087000CE010196B7010E947E058E010F5E1F4FCB
:10088000CE010596B8010E947E058985823040F030
:100890008989823028F0C701B8010E94F60501C09D
:1008A00081E06896E6E00C94F817ACE0B0E0EBE588
:1008B000F4E00C94E01769837A838B839C83CE01E8
:1008C0000196BE016B5F7F4F0E947E058D81823055
:1008D00061F1823050F1843021F48E81882351F10E
:1008E0002EC02F81388537FD20C06E812F31310514
:1008F0001CF06623F9F023C08EE190E0821B930B7D
:1009000029853A854B855C8504C056954795379572
:1009100027958A95D2F76623B1F05095409530958A
:1009200021953F4F4F4F5F4F0EC020E030E040E039
:1009300050E009C02FEF3FEF4FEF5FE704C020E02A
:1009400030E040E050E8B901CA012C96E2E00C9496
:10095000FC17DF92EF92FF920F931F93FC01E4804C
:10096000F58006811781D1808081823048F480E053
:1009700090E0A0E1B0E0E82AF92A0A2B1B2BA5C0E1
:10098000843009F49FC0823021F4EE24FF248701D3
:1009900005C0E114F1040105110519F4E0E0F0E0EF
:1009A00096C0628173819FEF623879070CF05BC05B
:1009B00022E83FEF261B370B2A3131052CF020E0CF
:1009C00030E040E050E02AC0B801A701022E04C088
:1009D00076956795579547950A94D2F781E090E010
:1009E000A0E0B0E004C0880F991FAA1FBB1F2A9582
:1009F000D2F70197A109B1098E219F21A023B1232C
:100A00000097A105B10521F081E090E0A0E0B0E001
:100A10009A01AB01282B392B4A2B5B2BDA01C90138
:100A20008F779070A070B07080349105A105B105EA
:100A300039F427FF09C0205C3F4F4F4F5F4F04C080
:100A4000215C3F4F4F4F5F4FE0E0F0E02030A0E0EF
:100A50003A07A0E04A07A0E45A0710F0E1E0F0E00E
:100A600079018A0127C06038710564F5FB01E158FE
:100A7000FF4FD801C7018F779070A070B07080349D
:100A80009105A105B10539F4E7FE0DC080E490E0C1
:100A9000A0E0B0E004C08FE390E0A0E0B0E0E80E9A
:100AA000F91E0A1F1B1F17FF05C016950795F7941F
:100AB000E794319687E016950795F794E7948A9521
:100AC000D1F705C0EE24FF248701EFEFF0E06E2F91
:100AD000679566276795902F9F77D794DD24D794E5
:100AE0008E2F8695492F462B582F5D29B701CA01B5
:100AF0001F910F91FF90EF90DF900895FC01DB01B3
:100B0000408151812281622F6F7770E0221F22275E
:100B1000221F9381892F880F822B282F30E0991F65
:100B20009927991F11969C93119721153105A9F5C5
:100B3000411551056105710511F482E037C082E865
:100B40009FEF13969C938E9312979A01AB0167E0E7
:100B5000220F331F441F551F6A95D1F783E08C93F2
:100B60000DC0220F331F441F551F12968D919C916B
:100B70001397019713969C938E931297203080E0E1
:100B8000380780E0480780E4580758F314962D93FF
:100B90003D934D935C93179708952F3F310579F45A
:100BA000411551056105710519F484E08C93089590
:100BB00064FF03C081E08C9312C01C9210C02F57B9
:100BC000304013963C932E93129783E08C9387E0EA
:100BD000440F551F661F771F8A95D1F770641496CE
:100BE0004D935D936D937C93179708951F93DC014C
:100BF000FB019C91923008F447C08081823008F458
:100C000043C0943051F411961C91843099F5818140
:100C1000682F70E0611B71093FC0843021F0923071
:100C200031F48230B9F18181882389F12DC0119688
:100C30001C9111978230F1F081811817D9F4129626
:100C40002D913C911397828193818217930794F0A1
:100C500028173907BCF014968D919D910D90BC9189
:100C6000A02D2481358146815781281739074A07ED
:100C70005B0718F4112341F00AC082179307A407F9
:100C8000B50740F4112319F061E070E005C06FEF83
:100C90007FEF02C060E070E0CB011F910895DF9309
:100CA000CF930F92CDB7DEB789838981882391F4E2
:100CB000E3E5F0E01082E3E5F0E081E08083E2E547
:100CC000F0E01082A9E5B0E0E9E5F0E08081816024
:100CD0008C9338C089818130B1F4A3E5B0E0E3E5BD
:100CE000F0E080818F7B8C93A3E5B0E0E3E5F0E05A
:100CF000808188608C93A9E5B0E0E9E5F0E080812F
:100D000082608C931FC089818230E1F4A3E5B0E05A
:100D1000E3E5F0E0808180648C93A3E5B0E0E3E557
:100D2000F0E0808188608C93A3E5B0E0E3E5F0E03B
:100D3000808180628C93A3E5B0E0E3E5F0E0808100
:100D40008F7E8C930F90CF91DF910895DF93CF9397
:100D500000D0CDB7DEB789836A838A81882329F4DE
:100D6000E2E5F0E08981808304C0ECE5F0E0898170
:100D700080830F900F90CF91DF910895DF93CF93F1
:100D8000CDB7DEB7A3E5B0E0E3E5F0E080818E7F8C
:100D90008C93A3E5B0E0E3E5F0E0808182608C9382
:100DA000A3E5B0E0E3E5F0E080818B7F8C93CF9109
:100DB000DF910895DF93CF93CDB7DEB7A3E5B0E021
:100DC000E3E5F0E080818E7F8C93A3E5B0E0E3E57E
:100DD000F0E080818D7F8C93A3E5B0E0E3E5F0E067
:100DE00080818B7F8C93CF91DF910895DF93CF9398
:100DF000CDB7DEB7AEE4B0E0EEE4F0E080818E7F08
:100E00008C93AEE4B0E0EEE4F0E0808182608C93FD
:100E1000AEE4B0E0EEE4F0E080818B7F8C93CF9184
:100E2000DF910895DF93CF9300D0CDB7DEB79A83DB
:100E30008983ECE4F0E089819A81918380830F902B
:100E40000F90CF91DF910895DF93CF93CDB7DEB7A9
:100E5000ECE4F0E080819181CF91DF910895DF9300
:100E6000CF93CDB7DEB7AFE5B0E0EFE5F0E080813E
:100E700080688C93CF91DF910895DF93CF93CDB7A6
:100E8000DEB7AFE5B0E0EFE5F0E080818F778C93DF
:100E9000CF91DF910895DF93CF93CDB7DEB72A9737
:100EA0000FB6F894DEBF0FBECDBF89836A838981F8
:100EB000282F30E03A87298789859A8581309105E6
:100EC00009F466C029853A852230310509F4BBC092
:100ED00089859A85009709F0D5C08A81282F30E04E
:100EE00038872F838F8198858130910521F12F815B
:100EF0003885223031052CF48F819885009761F078
:100F0000C1C02F8138852230310521F18F8198852C
:100F10008330910571F1B6C0A5E5B0E0E5E5F0E0FC
:100F200080818E7F8C93A5E5B0E0E5E5F0E08081DF
:100F30008D7F8C93A7C0A5E5B0E0E5E5F0E080816A
:100F400081608C93A5E5B0E0E5E5F0E080818D7FE0
:100F50008C9398C0A5E5B0E0E5E5F0E080818E7F58
:100F60008C93A5E5B0E0E5E5F0E0808182608C93AC
:100F700089C0A5E5B0E0E5E5F0E0808181608C9373
:100F8000A5E5B0E0E5E5F0E0808182608C937AC071
:100F90008A81282F30E03E832D838D819E81813090
:100FA000910521F12D813E81223031052CF48D8176
:100FB0009E81009761F066C02D813E81223031050F
:100FC00021F18D819E818330910571F15BC0A5E592
:100FD000B0E0E5E5F0E080818B7F8C93A5E5B0E0A3
:100FE000E5E5F0E08081877F8C934CC0A5E5B0E01B
:100FF000E5E5F0E0808184608C93A5E5B0E0E5E56F
:10100000F0E08081877F8C933DC0A5E5B0E0E5E509
:10101000F0E080818B7F8C93A5E5B0E0E5E5F0E022
:10102000808188608C932EC0A5E5B0E0E5E5F0E016
:10103000808184608C93A5E5B0E0E5E5F0E08081F7
:1010400088608C931FC08A81282F30E03C832B83DB
:101050008B819C818230910531F02B813C81233042
:10106000310549F00FC0A4E5B0E0E4E5F0E080818F
:101070008F7B8C9307C0A4E5B0E0E4E5F0E08081CD
:1010800080648C932A960FB6F894DEBF0FBECDBF56
:10109000CF91DF910895DF93CF9300D00F92CDB71A
:1010A000DEB789838981282F30E03B832A838A81B8
:1010B0009B818130910589F02A813B812230310565
:1010C000A1F08A819B810097B9F4ABE5B0E0EBE534
:1010D000F0E0808180648C930FC0ABE5B0E0EBE57D
:1010E000F0E0808180688C9307C0ABE5B0E0EBE571
:1010F000F0E0808180628C930F900F900F90CF91E1
:10110000DF910895DF93CF9300D00F92CDB7DEB774
:1011100089838981282F30E03B832A838A819B81C0
:101120008130910589F02A813B8122303105A1F07F
:101130008A819B810097B9F4ABE5B0E0EBE5F0E084
:1011400080818F7B8C930FC0ABE5B0E0EBE5F0E0E6
:1011500080818F778C9307C0ABE5B0E0EBE5F0E0E2
:1011600080818F7D8C930F900F900F90CF91DF91A6
:101170000895DF93CF93CDB7DEB72D970FB6F894D0
:10118000DEBF0FBECDBF89836A834B838981282F41
:1011900030E03D872C878C859D858234910509F44C
:1011A00050C02C853D852334310534F48C859D85D4
:1011B0008134910571F0ECC02C853D8523343105D7
:1011C00009F477C08C859D858434910509F4A9C004
:1011D000DFC08B81282F30E03B872A878A859B855B
:1011E000009731F02A853B8521303105B1F0D0C020
:1011F000AAE3B0E0EAE3F0E08081482F8A81282F5B
:1012000030E081E090E0022E02C0880F991F0A941E
:10121000E2F7809584238C93BBC0AAE3B0E0EAE3B5
:10122000F0E08081482F8A81282F30E081E090E033
:10123000022E02C0880F991F0A94E2F7842B8C9328
:10124000A7C08B81282F30E039872887888599852A
:10125000009731F02885398521303105B1F098C0EB
:10126000A7E3B0E0E7E3F0E08081482F8A81282FF0
:1012700030E081E090E0022E02C0880F991F0A94AE
:10128000E2F7809584238C9383C0A7E3B0E0E7E383
:10129000F0E08081482F8A81282F30E081E090E0C3
:1012A000022E02C0880F991F0A94E2F7842B8C93B8
:1012B0006FC08B81282F30E03F832E838E819F81EA
:1012C000009731F02E813F8121303105B1F060C0AF
:1012D000A4E3B0E0E4E3F0E08081482F8A81282F86
:1012E00030E081E090E0022E02C0880F991F0A943E
:1012F000E2F7809584238C934BC0A4E3B0E0E4E351
:10130000F0E08081482F8A81282F30E081E090E052
:10131000022E02C0880F991F0A94E2F7842B8C9347
:1013200037C08B81282F30E03D832C838C819D81B9
:10133000009731F02C813D8121303105B1F028C07A
:10134000A1E3B0E0E1E3F0E08081482F8A81282F1B
:1013500030E081E090E0022E02C0880F991F0A94CD
:10136000E2F7809584238C9313C0A1E3B0E0E1E31E
:10137000F0E08081482F8A81282F30E081E090E0E2
:10138000022E02C0880F991F0A94E2F7842B8C93D7
:101390002D960FB6F894DEBF0FBECDBFCF91DF9173
:1013A0000895DF93CF93CDB7DEB72D970FB6F8949E
:1013B000DEBF0FBECDBF89836A834B838981282F0F
:1013C00030E03D872C878C859D858234910509F41A
:1013D00050C02C853D852334310534F48C859D85A2
:1013E0008134910571F0ECC02C853D8523343105A5
:1013F00009F477C08C859D858434910509F4A9C0D2
:10140000DFC08B81282F30E03B872A878A859B8528
:10141000009731F02A853B8521303105B1F0D0C0ED
:10142000ABE3B0E0EBE3F0E08081482F8A81282F26
:1014300030E081E090E0022E02C0880F991F0A94EC
:10144000E2F7809584238C93BBC0ABE3B0E0EBE381
:10145000F0E08081482F8A81282F30E081E090E001
:10146000022E02C0880F991F0A94E2F7842B8C93F6
:10147000A7C08B81282F30E03987288788859985F8
:10148000009731F02885398521303105B1F098C0B9
:10149000A8E3B0E0E8E3F0E08081482F8A81282FBC
:1014A00030E081E090E0022E02C0880F991F0A947C
:1014B000E2F7809584238C9383C0A8E3B0E0E8E34F
:1014C000F0E08081482F8A81282F30E081E090E091
:1014D000022E02C0880F991F0A94E2F7842B8C9386
:1014E0006FC08B81282F30E03F832E838E819F81B8
:1014F000009731F02E813F8121303105B1F060C07D
:10150000A5E3B0E0E5E3F0E08081482F8A81282F51
:1015100030E081E090E0022E02C0880F991F0A940B
:10152000E2F7809584238C934BC0A5E3B0E0E5E31C
:10153000F0E08081482F8A81282F30E081E090E020
:10154000022E02C0880F991F0A94E2F7842B8C9315
:1015500037C08B81282F30E03D832C838C819D8187
:10156000009731F02C813D8121303105B1F028C048
:10157000A2E3B0E0E2E3F0E08081482F8A81282FE7
:1015800030E081E090E0022E02C0880F991F0A949B
:10159000E2F7809584238C9313C0A2E3B0E0E2E3EA
:1015A000F0E08081482F8A81282F30E081E090E0B0
:1015B000022E02C0880F991F0A94E2F7842B8C93A5
:1015C0002D960FB6F894DEBF0FBECDBFCF91DF9141
:1015D0000895DF93CF9300D000D0CDB7DEB78983D5
:1015E0006A838981282F30E03C832B838B819C8107
:1015F00082349105D9F02B813C812334310534F4B8
:101600008B819C818134910561F01EC02B813C81CE
:101610002334310581F08B819C818434910581F0E4
:1016200013C0EAE3F0E08A8180830EC0E7E3F0E0D4
:101630008A81808309C0E4E3F0E08A81808304C06A
:10164000E1E3F0E08A8180830F900F900F900F907C
:10165000CF91DF910895DF93CF9300D000D0CDB725
:10166000DEB789836A838981282F30E03C832B830E
:101670008B819C8182349105D9F02B813C8123346C
:10168000310534F48B819C818134910561F01EC059
:101690002B813C812334310581F08B819C81843402
:1016A000910581F013C0EBE3F0E08A8180830EC0E6
:1016B000E8E3F0E08A81808309C0E5E3F0E08A8115
:1016C000808304C0E2E3F0E08A8180830F900F9072
:1016D0000F900F90CF91DF910895DF93CF9300D0BB
:1016E00000D00F92CDB7DEB78A836B838B818830B1
:1016F00008F068C08A81282F30E03D832C834C811C
:101700005D814234510541F18C819D818334910585
:1017100034F42C813D812134310561F055C04C8178
:101720005D814334510551F18C819D818434910553
:10173000B9F14AC0E9E3F0E08081282F30E08B81E5
:10174000882F90E0A90102C0559547958A95E2F748
:10175000CA018170898338C0E6E3F0E08081282FD8
:1017600030E08B81882F90E0A90102C05595479504
:101770008A95E2F7CA018170898326C0E3E3F0E02D
:101780008081282F30E08B81882F90E0A90102C052
:10179000559547958A95E2F7CA018170898314C0EF
:1017A000E0E3F0E08081282F30E08B81882F90E00B
:1017B000A90102C0559547958A95E2F7CA01817043
:1017C000898302C08FEF898389810F900F900F90DA
:1017D0000F900F90CF91DF910895DF93CF93CDB706
:1017E000DEB7A1E3B0E0E1E3F0E0808181608C93BB
:1017F000A1E3B0E0E1E3F0E08081877F8C93A2E396
:10180000B0E0E2E3F0E0808188608C9381E061E009
:101810000E944B0781E00E944B0880E00E944F0627
:10182000CF91DF910895DF93CF93CDB7DEB768975F
:101830000FB6F894DEBF0FBECDBF80916E00882337
:1018400009F0CFC0A2E3B0E0E2E3F0E08081816084
:101850008C9380E090E0A0E7B1E48D8B9E8BAF8B02
:10186000B88F6D897E898F89988D2BEA3AEA4AE292
:1018700050E40E941F02DC01CB01898B9A8BAB8B59
:10188000BC8B69897A898B899C8920E030E040E8AB
:101890005FE30E94250488231CF481E0888B91C0BB
:1018A00069897A898B899C8920E030E04FE753E48D
:1018B0000E94C50318160CF07BC06D897E898F8944
:1018C000988D20E030E04AE754E40E941903DC01DF
:1018D000CB018C879D87AE87BF876C857D858E8584
:1018E0009F8520E030E04AEF54E40E941F02DC01B3
:1018F000CB0188879987AA87BB87688579858A8580
:101900009B8520E030E040E85FE30E9425048823C7
:101910002CF481E090E09F838E833FC068857985B9
:101920008A859B8520E03FEF4FE757E40E94C5037F
:1019300018164CF56C857D858E859F8520E030E0FE
:1019400040E251E40E941F02DC01CB01BC01CD0149
:101950000E944900DC01CB019F838E830FC088EC7D
:1019600090E09D838C838C819D810197F1F79D830D
:101970008C838E819F8101979F838E838E819F812F
:10198000009769F724C0688579858A859B850E94C0
:101990004900DC01CB019F838E838E819F819B83D5
:1019A0008A838A819B810197F1F79B838A830FC089
:1019B00069897A898B899C890E944900DC01CB0165
:1019C000888B8889898389818A95F1F78983A2E345
:1019D000B0E0E2E3F0E080818E7F8C9381E0809341
:1019E0006E0068960FB6F894DEBF0FBECDBFCF91E4
:1019F000DF910895DF93CF93CDB7DEB72E970FB663
:101A0000F894DEBF0FBECDBF80916E00813009F02B
:101A1000EDC080916F00882379F4E2E5F0E0108258
:101A200081E080936F00109270001092710010920C
:101A3000720010927300DAC0809170009091710072
:101A4000A0917200B09173002227382F492F5A2F8E
:101A5000E2E5F0E08081882F90E0A0E0B0E0820F26
:101A6000931FA41FB51F22ED31E040E050E0BC0100
:101A7000CD010E94AE17DA01C901809374009093E2
:101A80007500A0937600B093770081E060E00E943B
:101A9000BC168091740090917500A0917600B09171
:101AA000770028E730E0B9014AE050E00E941918B9
:101AB00088E790E00E94101888589F4F20E630E099
:101AC000B90145E050E00E94071888E790E00E94C5
:101AD000E80F80E090E0A0E2B2E48B879C87AD87BE
:101AE000BE876B857C858D859E8520E030E04AEF42
:101AF00054E40E941F02DC01CB018F839887A987E1
:101B0000BA876F81788589859A8520E030E040E842
:101B10005FE30E94250488232CF481E090E09E83FB
:101B20008D833FC06F81788589859A8520E03FEF5E
:101B30004FE757E40E94C50318164CF56B857C856A
:101B40008D859E8520E030E040E251E40E941F0236
:101B5000DC01CB01BC01CD010E944900DC01CB01BD
:101B60009E838D830FC088EC90E09C838B838B8158
:101B70009C810197F1F79C838B838D819E810197D6
:101B80009E838D838D819E81009769F714C06F813C
:101B9000788589859A850E944900DC01CB019E8366
:101BA0008D838D819E819A83898389819A81019712
:101BB000F1F79A838983109270001092710010924D
:101BC00072001092730010926F00809174009091D7
:101BD0007500A0917600B0917700883C9105A10531
:101BE000B10521F40E94250E0E94470E2E960FB6D5
:101BF000F894DEBF0FBECDBFCF91DF910895DF9384
:101C0000CF93CDB7DEB78091700090917100A09115
:101C10007200B09173008B3D22E0920720E0A20792
:101C200020E0B20778F0E2E5F0E0108210926E005A
:101C300010926F001092700010927100109272005A
:101C400010927300CF91DF910895DF93CF93CDB7BA
:101C5000DEB7AFE4B0E0EFE4F0E08081826A8C931D
:101C6000AEE4B0E0EEE4F0E080818B618C93E6E4DA
:101C7000F0E087E893E191838083A1E3B0E0E1E3C2
:101C8000F0E0808180638C93CF91DF910895DF93A2
:101C9000CF93CDB7DEB72E970FB6F894DEBF0FBE49
:101CA000CDBFEAE4F0E081E690E09183808380E0BC
:101CB00090E0AAE7B4E48B879C87AD87BE876B85ED
:101CC0007C858D859E8520E030E04AEF54E40E94BB
:101CD0001F02DC01CB018F839887A987BA876F81A8
:101CE000788589859A8520E030E040E85FE30E94AE
:101CF000250488232CF481E090E09E838D833FC0EF
:101D00006F81788589859A8520E03FEF4FE757E41A
:101D10000E94C50318164CF56B857C858D859E85C4
:101D200020E030E040E251E40E941F02DC01CB01E0
:101D3000BC01CD010E944900DC01CB019E838D8353
:101D40000FC088EC90E09C838B838B819C810197F2
:101D5000F1F79C838B838D819E8101979E838D8378
:101D60008D819E81009769F714C06F817885898580
:101D70009A850E944900DC01CB019E838D838D8171
:101D80009E819A83898389819A810197F1F79A8349
:101D900089832E960FB6F894DEBF0FBECDBFCF91CC
:101DA000DF910895DF93CF93CDB7DEB72E970FB6AF
:101DB000F894DEBF0FBECDBFEAE4F0E089EA91E01F
:101DC0009183808380E090E0AAE7B4E48B879C87CE
:101DD000AD87BE876B857C858D859E8520E030E054
:101DE0004AEF54E40E941F02DC01CB018F839887E5
:101DF000A987BA876F81788589859A8520E030E048
:101E000040E85FE30E94250488232CF481E090E001
:101E10009E838D833FC06F81788589859A8520E078
:101E20003FEF4FE757E40E94C50318164CF56B854A
:101E30007C858D859E8520E030E040E251E40E9463
:101E40001F02DC01CB01BC01CD010E944900DC0175
:101E5000CB019E838D830FC088EC90E09C838B83A5
:101E60008B819C810197F1F79C838B838D819E816F
:101E700001979E838D838D819E81009769F714C0A1
:101E80006F81788589859A850E944900DC01CB01A4
:101E90009E838D838D819E819A83898389819A8196
:101EA0000197F1F79A8389832E960FB6F894DEBFD7
:101EB0000FBECDBFCF91DF910895DF93CF93CDB704
:101EC000DEB72E970FB6F894DEBF0FBECDBFEAE4A3
:101ED000F0E087E192E09183808380E090E0AAE7E0
:101EE000B4E48B879C87AD87BE876B857C858D85A9
:101EF0009E8520E030E04AEF54E40E941F02DC019E
:101F0000CB018F839887A987BA876F817885898568
:101F10009A8520E030E040E85FE30E9425048823B2
:101F20002CF481E090E09E838D833FC06F817885A3
:101F300089859A8520E03FEF4FE757E40E94C5036B
:101F400018164CF56B857C858D859E8520E030E0EC
:101F500040E251E40E941F02DC01CB01BC01CD0133
:101F60000E944900DC01CB019E838D830FC088EC69
:101F700090E09C838B838B819C810197F1F79C83FC
:101F80008B838D819E8101979E838D838D819E8120
:101F9000009769F714C06F81788589859A850E94BA
:101FA0004900DC01CB019E838D838D819E819A83C4
:101FB000898389819A810197F1F79A8389832E9683
:101FC0000FB6F894DEBF0FBECDBFCF91DF9108955D
:101FD000DF93CF9300D000D0CDB7DEB79C838B8347
:101FE0001A8219820FC029813A818B819C81FC0160
:101FF000E20FF31F80810E94231289819A8101964A
:102000009A83898329813A818B819C81FC01E20F2B
:10201000F31F8081882339F70F900F900F900F9056
:10202000CF91DF910895DF93CF93CDB7DEB7E997D6
:102030000FB6F894DEBF0FBECDBF89AFEBE3F0E083
:1020400089AD807F8083A8E3B0E0E8E3F0E08081A1
:102050008D7F8C93A8E3B0E0E8E3F0E080818860B6
:102060008C9380E090E0A0EAB0E48DAB9EABAFAB88
:10207000B8AF6DA97EA98FA998AD20E030E04AEFF6
:1020800054E40E941F02DC01CB0189AB9AABABABDD
:10209000BCAB69A97AA98BA99CA920E030E040E8F3
:1020A0005FE30E94250488232CF481E090E098AB44
:1020B0008FA73FC069A97AA98BA99CA920E03FEF0F
:1020C0004FE757E40E94C50318164CF56DA97EA989
:1020D0008FA998AD20E030E040E251E40E941F0259
:1020E000DC01CB01BC01CD010E944900DC01CB0128
:1020F00098AB8FA70FC088EC90E09EA78DA78DA509
:102100009EA50197F1F79EA78DA78FA598A9019786
:1021100098AB8FA78FA598A9009769F714C069A9F4
:102120007AA98BA99CA90E944900DC01CB0198AB3C
:102130008FA78FA598A99CA78BA78BA59CA5019776
:10214000F1F79CA78BA7A8E3B0E0E8E3F0E080817B
:10215000877F8C9380E090E0A0EAB0E48FA398A7FB
:10216000A9A7BAA76FA178A589A59AA520E030E014
:102170004AEF54E40E941F02DC01CB018BA39CA315
:10218000ADA3BEA36BA17CA18DA19EA120E030E0F8
:1021900040E85FE30E94250488232CF481E090E06E
:1021A0009AA389A33FC06BA17CA18DA19EA120E031
:1021B0003FEF4FE757E40E94C50318164CF56FA197
:1021C00078A589A59AA520E030E040E251E40E947C
:1021D0001F02DC01CB01BC01CD010E944900DC01E2
:1021E000CB019AA389A30FC088EC90E098A38F8FAE
:1021F0008F8D98A10197F1F798A38F8F89A19AA14C
:1022000001979AA389A389A19AA1009769F714C09D
:102210006BA17CA18DA19EA10E944900DC01CB0194
:102220009AA389A389A19AA19E8F8D8F8D8D9E8D52
:102230000197F1F79E8F8D8FEBE3F0E089AD882F4A
:1022400090E082959295907F9827807F9827808351
:10225000A8E3B0E0E8E3F0E0808188608C9380E060
:1022600090E0A0EAB0E4898F9A8FAB8FBC8F698D24
:102270007A8D8B8D9C8D20E030E04AEF54E40E94F3
:102280001F02DC01CB018D8B9E8BAF8BB88F6D89CC
:102290007E898F89988D20E030E040E85FE30E94DE
:1022A000250488232CF481E090E09C8B8B8B3FC02D
:1022B0006D897E898F89988D20E03FEF4FE757E445
:1022C0000E94C50318164CF5698D7A8D8B8D9C8DF7
:1022D00020E030E040E251E40E941F02DC01CB012B
:1022E000BC01CD010E944900DC01CB019C8B8B8B92
:1022F0000FC088EC90E09A8B898B89899A89019725
:10230000F1F79A8B898B8B899C8901979C8B8B8B9E
:102310008B899C89009769F714C06D897E898F89A4
:10232000988D0E944900DC01CB019C8B8B8B8B89A3
:102330009C89988B8F878F8598890197F1F7988B67
:102340008F87A8E3B0E0E8E3F0E08081877F8C939B
:1023500080E090E0A0EAB0E48B879C87AD87BE87E1
:102360006B857C858D859E8520E030E04AEF54E4C6
:102370000E941F02DC01CB018F839887A987BA874F
:102380006F81788589859A8520E030E040E85FE3B9
:102390000E94250488232CF481E090E09E838D83A5
:1023A0003FC06F81788589859A8520E03FEF4FE7B0
:1023B00057E40E94C50318164CF56B857C858D8506
:1023C0009E8520E030E040E251E40E941F02DC01E3
:1023D000CB01BC01CD010E944900DC01CB019E83F1
:1023E0008D830FC088EC90E09C838B838B819C81D4
:1023F0000197F1F79C838B838D819E8101979E834A
:102400008D838D819E81009769F714C06F817885D7
:1024100089859A850E944900DC01CB019E838D83CA
:102420008D819E819A83898389819A810197F1F7B1
:102430009A838983E9960FB6F894DEBF0FBECDBFAD
:10244000CF91DF910895DF93CF93CDB7DEB7E997B2
:102450000FB6F894DEBF0FBECDBF89AFEBE3F0E05F
:1024600089AD807F8083A8E3B0E0E8E3F0E080817D
:1024700082608C93A8E3B0E0E8E3F0E080818860BC
:102480008C9380E090E0A0EAB0E48DAB9EABAFAB64
:10249000B8AF6DA97EA98FA998AD20E030E04AEFD2
:1024A00054E40E941F02DC01CB0189AB9AABABABB9
:1024B000BCAB69A97AA98BA99CA920E030E040E8CF
:1024C0005FE30E94250488232CF481E090E098AB20
:1024D0008FA73FC069A97AA98BA99CA920E03FEFEB
:1024E0004FE757E40E94C50318164CF56DA97EA965
:1024F0008FA998AD20E030E040E251E40E941F0235
:10250000DC01CB01BC01CD010E944900DC01CB0103
:1025100098AB8FA70FC088EC90E09EA78DA78DA5E4
:102520009EA50197F1F79EA78DA78FA598A9019762
:1025300098AB8FA78FA598A9009769F714C069A9D0
:102540007AA98BA99CA90E944900DC01CB0198AB18
:102550008FA78FA598A99CA78BA78BA59CA5019752
:10256000F1F79CA78BA7A8E3B0E0E8E3F0E0808157
:10257000877F8C9380E090E0A0EAB0E48FA398A7D7
:10258000A9A7BAA76FA178A589A59AA520E030E0F0
:102590004AEF54E40E941F02DC01CB018BA39CA3F1
:1025A000ADA3BEA36BA17CA18DA19EA120E030E0D4
:1025B00040E85FE30E94250488232CF481E090E04A
:1025C0009AA389A33FC06BA17CA18DA19EA120E00D
:1025D0003FEF4FE757E40E94C50318164CF56FA173
:1025E00078A589A59AA520E030E040E251E40E9458
:1025F0001F02DC01CB01BC01CD010E944900DC01BE
:10260000CB019AA389A30FC088EC90E098A38F8F89
:102610008F8D98A10197F1F798A38F8F89A19AA127
:1026200001979AA389A389A19AA1009769F714C079
:102630006BA17CA18DA19EA10E944900DC01CB0170
:102640009AA389A389A19AA19E8F8D8F8D8D9E8D2E
:102650000197F1F79E8F8D8FEBE3F0E089AD882F26
:1026600090E082959295907F9827807F982780832D
:10267000A8E3B0E0E8E3F0E0808188608C9380E03C
:1026800090E0A0EAB0E4898F9A8FAB8FBC8F698D00
:102690007A8D8B8D9C8D20E030E04AEF54E40E94CF
:1026A0001F02DC01CB018D8B9E8BAF8BB88F6D89A8
:1026B0007E898F89988D20E030E040E85FE30E94BA
:1026C000250488232CF481E090E09C8B8B8B3FC009
:1026D0006D897E898F89988D20E03FEF4FE757E421
:1026E0000E94C50318164CF5698D7A8D8B8D9C8DD3
:1026F00020E030E040E251E40E941F02DC01CB0107
:10270000BC01CD010E944900DC01CB019C8B8B8B6D
:102710000FC088EC90E09A8B898B89899A89019700
:10272000F1F79A8B898B8B899C8901979C8B8B8B7A
:102730008B899C89009769F714C06D897E898F8980
:10274000988D0E944900DC01CB019C8B8B8B8B897F
:102750009C89988B8F878F8598890197F1F7988B43
:102760008F87A8E3B0E0E8E3F0E08081877F8C9377
:1027700080E090E0A0EAB0E48B879C87AD87BE87BD
:102780006B857C858D859E8520E030E04AEF54E4A2
:102790000E941F02DC01CB018F839887A987BA872B
:1027A0006F81788589859A8520E030E040E85FE395
:1027B0000E94250488232CF481E090E09E838D8381
:1027C0003FC06F81788589859A8520E03FEF4FE78C
:1027D00057E40E94C50318164CF56B857C858D85E2
:1027E0009E8520E030E040E251E40E941F02DC01BF
:1027F000CB01BC01CD010E944900DC01CB019E83CD
:102800008D830FC088EC90E09C838B838B819C81AF
:102810000197F1F79C838B838D819E8101979E8325
:102820008D838D819E81009769F714C06F817885B3
:1028300089859A850E944900DC01CB019E838D83A6
:102840008D819E819A83898389819A810197F1F78D
:102850009A838983E9960FB6F894DEBF0FBECDBF89
:10286000CF91DF910895DF93CF93CDB7DEB7E8978F
:102870000FB6F894DEBF0FBECDBFEAE3F0E080EF05
:102880008083A7E3B0E0E7E3F0E080818E608C9383
:10289000EBE3F0E080E28083A8E3B0E0E8E3F0E07F
:1028A000808188608C9380E090E0A0EAB0E48DABFA
:1028B0009EABAFABB8AF6DA97EA98FA998AD20E054
:1028C00030E04AEF54E40E941F02DC01CB0189ABE7
:1028D0009AABABABBCAB69A97AA98BA99CA920E048
:1028E00030E040E85FE30E94250488232CF481E077
:1028F00090E098AB8FA73FC069A97AA98BA99CA942
:1029000020E03FEF4FE757E40E94C50318164CF54F
:102910006DA97EA98FA998AD20E030E040E251E496
:102920000E941F02DC01CB01BC01CD010E944900C5
:10293000DC01CB0198AB8FA70FC088EC90E09EA77D
:102940008DA78DA59EA50197F1F79EA78DA78FA5B1
:1029500098A9019798AB8FA78FA598A9009769F7B9
:1029600014C069A97AA98BA99CA90E944900DC011D
:10297000CB0198AB8FA78FA598A99CA78BA78BA5F8
:102980009CA50197F1F79CA78BA7A8E3B0E0E8E32B
:10299000F0E08081877F8C9380E090E0A0EAB0E453
:1029A0008FA398A7A9A7BAA76FA178A589A59AA56B
:1029B00020E030E04AEF54E40E941F02DC01CB012A
:1029C0008BA39CA3ADA3BEA36BA17CA18DA19EA153
:1029D00020E030E040E85FE30E94250488232CF4E7
:1029E00081E090E09AA389A33FC06BA17CA18DA157
:1029F0009EA120E03FEF4FE757E40E94C503181661
:102A00004CF56FA178A589A59AA520E030E040E2B9
:102A100051E40E941F02DC01CB01BC01CD010E94E8
:102A20004900DC01CB019AA389A30FC088EC90E098
:102A300098A38F8F8F8D98A10197F1F798A38F8F0F
:102A400089A19AA101979AA389A389A19AA1009724
:102A500069F714C06BA17CA18DA19EA10E944900C1
:102A6000DC01CB019AA389A389A19AA19E8F8D8FA6
:102A70008D8D9E8D0197F1F79E8F8D8F88E20E943C
:102A8000131080E090E0A0EAB0E4898F9A8FAB8FBA
:102A9000BC8F698D7A8D8B8D9C8D20E030E04AEF64
:102AA00054E40E941F02DC01CB018D8B9E8BAF8B07
:102AB000B88F6D897E898F89988D20E030E040E85D
:102AC0005FE30E94250488232CF481E090E09C8B36
:102AD0008B8B3FC06D897E898F89988D20E03FEF79
:102AE0004FE757E40E94C50318164CF5698D7A8D9F
:102AF0008B8D9C8D20E030E040E251E40E941F026B
:102B0000DC01CB01BC01CD010E944900DC01CB01FD
:102B10009C8B8B8B0FC088EC90E09A8B898B89897A
:102B20009A890197F1F79A8B898B8B899C890197F8
:102B30009C8B8B8B8B899C89009769F714C06D895E
:102B40007E898F89988D0E944900DC01CB019C8B86
:102B50008B8B8B899C89988B8F878F859889019720
:102B6000F1F7988B8F878FE00E94131080E090E040
:102B7000A0EAB0E48B879C87AD87BE876B857C8598
:102B80008D859E8520E030E04AEF54E40E941F02CC
:102B9000DC01CB018F839887A987BA876F817885FD
:102BA00089859A8520E030E040E85FE30E942504B3
:102BB00088232CF481E090E09E838D833FC06F8159
:102BC000788589859A8520E03FEF4FE757E40E949A
:102BD000C50318164CF56B857C858D859E8520E098
:102BE00030E040E251E40E941F02DC01CB01BC0155
:102BF000CD010E944900DC01CB019E838D830FC073
:102C000088EC90E09C838B838B819C810197F1F70A
:102C10009C838B838D819E8101979E838D838D8183
:102C20009E81009769F714C06F81788589859A85A0
:102C30000E944900DC01CB019E838D838D819E81A2
:102C40009A83898389819A810197F1F79A8389838D
:102C500080E80E941310E8960FB6F894DEBF0FBE0E
:102C6000CDBFCF91DF910895DF93CF93CDB7DEB77E
:102C70002E970FB6F894DEBF0FBECDBF81E00E9445
:102C8000131080E090E0A0EAB0E48B879C87AD87CA
:102C9000BE876B857C858D859E8520E030E04AEF80
:102CA00054E40E941F02DC01CB018F839887A9871F
:102CB000BA876F81788589859A8520E030E040E881
:102CC0005FE30E94250488232CF481E090E09E833A
:102CD0008D833FC06F81788589859A8520E03FEF9D
:102CE0004FE757E40E94C50318164CF56B857C85A9
:102CF0008D859E8520E030E040E251E40E941F0275
:102D0000DC01CB01BC01CD010E944900DC01CB01FB
:102D10009E838D830FC088EC90E09C838B838B8196
:102D20009C810197F1F79C838B838D819E81019714
:102D30009E838D838D819E81009769F714C06F817A
:102D4000788589859A850E944900DC01CB019E83A4
:102D50008D838D819E819A83898389819A81019750
:102D6000F1F79A8389832E960FB6F894DEBF0FBED3
:102D7000CDBFCF91DF910895DF93CF93CDB7DEB76D
:102D80006A970FB6F894DEBF0FBECDBF898F6A8FEA
:102D9000898D882F90E000249695879507949695C5
:102DA00087950794982F802D8068982F8A8D890F9A
:102DB0000E94131080E090E0A8E4B2E48D8B9E8B1B
:102DC000AF8BB88F6D897E898F89988D2BEA3AEA0F
:102DD0004AE250E40E941F02DC01CB01898B9A8BEE
:102DE000AB8BBC8B69897A898B899C8920E030E028
:102DF00040E85FE30E94250488231CF481E0888B6F
:102E000091C069897A898B899C8920E030E04FE7FD
:102E100053E40E94C50318160CF07BC06D897E89AF
:102E20008F89988D20E030E04AE754E40E9419032E
:102E3000DC01CB018C879D87AE87BF876C857D8544
:102E40008E859F8520E030E04AEF54E40E941F0207
:102E5000DC01CB0188879987AA87BB87688579853C
:102E60008A859B8520E030E040E85FE30E942504EE
:102E700088232CF481E090E09F838E833FC0688597
:102E800079858A859B8520E03FEF4FE757E40E94D4
:102E9000C50318164CF56C857D858E859F8520E0D1
:102EA00030E040E251E40E941F02DC01CB01BC0192
:102EB000CD010E944900DC01CB019F838E830FC0AE
:102EC00088EC90E09D838C838C819D810197F1F744
:102ED0009D838C838E819F8101979F838E838E81BA
:102EE0009F81009769F724C0688579858A859B85CD
:102EF0000E944900DC01CB019F838E838E819F81DC
:102F00009B838A838A819B810197F1F79B838A83C4
:102F10000FC069897A898B899C890E944900DC01EC
:102F2000CB01888B8889898389818A95F1F7898388
:102F30006A960FB6F894DEBF0FBECDBFCF91DF917A
:102F40000895DF93CF93CDB7DEB70E94ED0B0E94BB
:102F5000130C0E94FA0C0E94FF0DF9CFA1E21A2E69
:102F6000AA1BBB1BFD010DC0AA1FBB1FEE1FFF1F2D
:102F7000A217B307E407F50720F0A21BB30BE40B7D
:102F8000F50B661F771F881F991F1A9469F76095C4
:102F90007095809590959B01AC01BD01CF0108957E
:102FA0002F923F924F925F926F927F928F929F9259
:102FB000AF92BF92CF92DF92EF92FF920F931F9347
:102FC000CF93DF93CDB7DEB7CA1BDB0B0FB6F894F8
:102FD000DEBF0FBECDBF09942A88398848885F8438
:102FE0006E847D848C849B84AA84B984C884DF80A9
:102FF000EE80FD800C811B81AA81B981CE0FD11D8D
:103000000FB6F894DEBF0FBECDBFED010895FB01F2
:10301000DC0102C001900D9241505040D8F7089554
:10302000FC0101900020E9F7809590958E0F9F1F7D
:103030000895FB019F01E8944230C4F04532B4F496
:103040004A3029F497FB1EF4909581959F4F642F89
:1030500077270E944A18805D8A330CF0895D81933E
:10306000CB010097A1F716F45DE251931082C901DC
:103070000C943A18DC01FC01672F71917723E1F77A
:10308000329704C07C916D9370836291AE17BF0735
:10309000C8F30895AA1BBB1B51E107C0AA1FBB1FA1
:1030A000A617B70710F0A61BB70B881F991F5A95D4
:1030B000A9F780959095BC01CD010895F894FFCFB4
:0E30C00020636D2000000000000000000000F2
:00000001FF
